{
  "address": "0x3Cf0BC80FaBbAbE0069106cDA16D9aFc4eAC745E",
  "abi": [
    {
      "inputs": [
        {
          "internalType": "address",
          "name": "_ohm",
          "type": "address"
        }
      ],
      "stateMutability": "nonpayable",
      "type": "constructor"
    },
    {
      "anonymous": false,
      "inputs": [
        {
          "indexed": true,
          "internalType": "address",
          "name": "previousOwner",
          "type": "address"
        },
        {
          "indexed": true,
          "internalType": "address",
          "name": "newOwner",
          "type": "address"
        }
      ],
      "name": "OwnershipPulled",
      "type": "event"
    },
    {
      "anonymous": false,
      "inputs": [
        {
          "indexed": true,
          "internalType": "address",
          "name": "previousOwner",
          "type": "address"
        },
        {
          "indexed": true,
          "internalType": "address",
          "name": "newOwner",
          "type": "address"
        }
      ],
      "name": "OwnershipPushed",
      "type": "event"
    },
    {
      "inputs": [],
      "name": "dispense",
      "outputs": [],
      "stateMutability": "nonpayable",
      "type": "function"
    },
    {
      "inputs": [],
      "name": "dripTokens",
      "outputs": [
        {
          "internalType": "uint256",
          "name": "",
          "type": "uint256"
        }
      ],
      "stateMutability": "view",
      "type": "function"
    },
    {
      "inputs": [],
      "name": "dripWei",
      "outputs": [
        {
          "internalType": "uint256",
          "name": "",
          "type": "uint256"
        }
      ],
      "stateMutability": "view",
      "type": "function"
    },
    {
      "inputs": [],
      "name": "ohm",
      "outputs": [
        {
          "internalType": "contract IERC20",
          "name": "",
          "type": "address"
        }
      ],
      "stateMutability": "view",
      "type": "function"
    },
    {
      "inputs": [],
      "name": "owner",
      "outputs": [
        {
          "internalType": "address",
          "name": "",
          "type": "address"
        }
      ],
      "stateMutability": "view",
      "type": "function"
    },
    {
      "inputs": [],
      "name": "pullManagement",
      "outputs": [],
      "stateMutability": "nonpayable",
      "type": "function"
    },
    {
      "inputs": [
        {
          "internalType": "address",
          "name": "newOwner_",
          "type": "address"
        }
      ],
      "name": "pushManagement",
      "outputs": [],
      "stateMutability": "nonpayable",
      "type": "function"
    },
    {
      "inputs": [],
      "name": "renounceManagement",
      "outputs": [],
      "stateMutability": "nonpayable",
      "type": "function"
    },
    {
      "inputs": [
        {
          "internalType": "address",
          "name": "_ohm",
          "type": "address"
        }
      ],
      "name": "setOhm",
      "outputs": [],
      "stateMutability": "nonpayable",
      "type": "function"
    }
  ],
  "transactionHash": "0x46dc13ad332452d3d752017d36c37d019008c8372151c0b24cd7b150405c3825",
  "args": [
    "0xA389cD10d0c6339B74F8E233276EdEcC38cB7D54"
  ],
  "solcInputHash": "41e63a440c45c8e2306e7a5fc6be2602",
  "bytecode": "0x608060405234801561001057600080fd5b506040516107963803806107968339818101604052602081101561003357600080fd5b5051600080546001600160a01b03191633178082556040516001600160a01b039190911691907fea8258f2d9ddb679928cf34b78cf645b7feda9acc828e4dd82d014eaae270eba908290a36100878161008d565b5061017b565b6000546001600160a01b031633146100ec576040805162461bcd60e51b815260206004820181905260248201527f4f776e61626c653a2063616c6c6572206973206e6f7420746865206f776e6572604482015290519081900360640190fd5b600280546001600160a01b0319166001600160a01b0383169081179091556040805163313ce56760e01b8152905163313ce56791600480820192602092909190829003018186803b15801561014057600080fd5b505afa158015610154573d6000803e3d6000fd5b505050506040513d602081101561016a57600080fd5b505160ff16600a90810a0260035550565b61060c8061018a6000396000f3fe608060405234801561001057600080fd5b50600436106100a35760003560e01c806346f68ee9116100765780638da5cb5b1161005b5780638da5cb5b14610126578063ad63a1521461012e578063f9224d3c14610136576100a3565b806346f68ee9146100f85780635a96ac0a1461011e576100a3565b806302b1d239146100a8578063089208d8146100cc5780630adb1a9a146100d6578063358c0b16146100de575b600080fd5b6100b061015c565b604080516001600160a01b039092168252519081900360200190f35b6100d461016b565b005b6100d4610220565b6100e661036e565b60408051918252519081900360200190f35b6100d46004803603602081101561010e57600080fd5b50356001600160a01b0316610373565b6100d461042d565b6100b06104da565b6100e66104e9565b6100d46004803603602081101561014c57600080fd5b50356001600160a01b03166104ef565b6002546001600160a01b031681565b6000546001600160a01b031633146101ca576040805162461bcd60e51b815260206004820181905260248201527f4f776e61626c653a2063616c6c6572206973206e6f7420746865206f776e6572604482015290519081900360640190fd5b600080546040516001600160a01b03909116907faa151555690c956fc3ea32f106bb9f119b5237a061eaa8557cff3e51e3792c8d908390a3600080546001600160a01b0319908116909155600180549091169055565b600254604080516370a0823160e01b815233600482015290516001600160a01b03909216916370a0823191602480820192602092909190829003018186803b15801561026b57600080fd5b505afa15801561027f573d6000803e3d6000fd5b505050506040513d602081101561029557600080fd5b5051156102e9576040805162461bcd60e51b815260206004820152601560248201527f4f484d20616c72656164792064697370656e7365640000000000000000000000604482015290519081900360640190fd5b6002546003546040805163a9059cbb60e01b81523360048201526024810192909252516001600160a01b039092169163a9059cbb916044808201926020929091908290030181600087803b15801561034057600080fd5b505af1158015610354573d6000803e3d6000fd5b505050506040513d602081101561036a57600080fd5b5050565b600a81565b6000546001600160a01b031633146103d2576040805162461bcd60e51b815260206004820181905260248201527f4f776e61626c653a2063616c6c6572206973206e6f7420746865206f776e6572604482015290519081900360640190fd5b600080546040516001600160a01b03808516939216917fea8258f2d9ddb679928cf34b78cf645b7feda9acc828e4dd82d014eaae270eba91a3600180546001600160a01b0319166001600160a01b0392909216919091179055565b6001546001600160a01b031633146104765760405162461bcd60e51b81526004018080602001828103825260228152602001806105de6022913960400191505060405180910390fd5b600154600080546040516001600160a01b0393841693909116917faa151555690c956fc3ea32f106bb9f119b5237a061eaa8557cff3e51e3792c8d91a360018054600080546001600160a01b03199081166001600160a01b03841617909155169055565b6000546001600160a01b031690565b60035481565b6000546001600160a01b0316331461054e576040805162461bcd60e51b815260206004820181905260248201527f4f776e61626c653a2063616c6c6572206973206e6f7420746865206f776e6572604482015290519081900360640190fd5b600280546001600160a01b0319166001600160a01b0383169081179091556040805163313ce56760e01b8152905163313ce56791600480820192602092909190829003018186803b1580156105a257600080fd5b505afa1580156105b6573d6000803e3d6000fd5b505050506040513d60208110156105cc57600080fd5b505160ff16600a90810a026003555056fe4f776e61626c653a206d757374206265206e6577206f776e657220746f2070756c6ca164736f6c6343000705000a",
  "devdoc": {
    "kind": "dev",
    "methods": {},
    "version": 1
  },
  "userdoc": {
    "kind": "user",
    "methods": {},
    "version": 1
  },
  "storageLayout": {
    "storage": [
      {
        "astId": 11748,
        "contract": "contracts/testnet/OhmFaucet.sol:OhmFaucet",
        "label": "_owner",
        "offset": 0,
        "slot": "0",
        "type": "t_address"
      },
      {
        "astId": 11750,
        "contract": "contracts/testnet/OhmFaucet.sol:OhmFaucet",
        "label": "_newOwner",
        "offset": 0,
        "slot": "1",
        "type": "t_address"
      },
      {
        "astId": 10931,
        "contract": "contracts/testnet/OhmFaucet.sol:OhmFaucet",
        "label": "ohm",
        "offset": 0,
        "slot": "2",
        "type": "t_contract(IERC20)5893"
      },
      {
        "astId": 10936,
        "contract": "contracts/testnet/OhmFaucet.sol:OhmFaucet",
        "label": "dripWei",
        "offset": 0,
        "slot": "3",
        "type": "t_uint256"
      }
    ],
    "types": {
      "t_address": {
        "encoding": "inplace",
        "label": "address",
        "numberOfBytes": "20"
      },
      "t_contract(IERC20)5893": {
        "encoding": "inplace",
        "label": "contract IERC20",
        "numberOfBytes": "20"
      },
      "t_uint256": {
        "encoding": "inplace",
        "label": "uint256",
        "numberOfBytes": "32"
      }
    }
  }
}