{
  "address": "0x2C205922C4331798DfFaa2013704E1d33b838d32",
  "abi": [
    {
      "anonymous": false,
      "inputs": [
        {
          "indexed": false,
          "internalType": "address",
          "name": "owner",
          "type": "address"
        }
      ],
      "name": "AddedOwner",
      "type": "event"
    },
    {
      "anonymous": false,
      "inputs": [
        {
          "indexed": true,
          "internalType": "bytes32",
          "name": "approvedHash",
          "type": "bytes32"
        },
        {
          "indexed": true,
          "internalType": "address",
          "name": "owner",
          "type": "address"
        }
      ],
      "name": "ApproveHash",
      "type": "event"
    },
    {
      "anonymous": false,
      "inputs": [
        {
          "indexed": false,
          "internalType": "address",
          "name": "handler",
          "type": "address"
        }
      ],
      "name": "ChangedFallbackHandler",
      "type": "event"
    },
    {
      "anonymous": false,
      "inputs": [
        {
          "indexed": false,
          "internalType": "address",
          "name": "guard",
          "type": "address"
        }
      ],
      "name": "ChangedGuard",
      "type": "event"
    },
    {
      "anonymous": false,
      "inputs": [
        {
          "indexed": false,
          "internalType": "uint256",
          "name": "threshold",
          "type": "uint256"
        }
      ],
      "name": "ChangedThreshold",
      "type": "event"
    },
    {
      "anonymous": false,
      "inputs": [
        {
          "indexed": false,
          "internalType": "address",
          "name": "module",
          "type": "address"
        }
      ],
      "name": "DisabledModule",
      "type": "event"
    },
    {
      "anonymous": false,
      "inputs": [
        {
          "indexed": false,
          "internalType": "address",
          "name": "module",
          "type": "address"
        }
      ],
      "name": "EnabledModule",
      "type": "event"
    },
    {
      "anonymous": false,
      "inputs": [
        {
          "indexed": false,
          "internalType": "bytes32",
          "name": "txHash",
          "type": "bytes32"
        },
        {
          "indexed": false,
          "internalType": "uint256",
          "name": "payment",
          "type": "uint256"
        }
      ],
      "name": "ExecutionFailure",
      "type": "event"
    },
    {
      "anonymous": false,
      "inputs": [
        {
          "indexed": true,
          "internalType": "address",
          "name": "module",
          "type": "address"
        }
      ],
      "name": "ExecutionFromModuleFailure",
      "type": "event"
    },
    {
      "anonymous": false,
      "inputs": [
        {
          "indexed": true,
          "internalType": "address",
          "name": "module",
          "type": "address"
        }
      ],
      "name": "ExecutionFromModuleSuccess",
      "type": "event"
    },
    {
      "anonymous": false,
      "inputs": [
        {
          "indexed": false,
          "internalType": "bytes32",
          "name": "txHash",
          "type": "bytes32"
        },
        {
          "indexed": false,
          "internalType": "uint256",
          "name": "payment",
          "type": "uint256"
        }
      ],
      "name": "ExecutionSuccess",
      "type": "event"
    },
    {
      "anonymous": false,
      "inputs": [
        {
          "indexed": false,
          "internalType": "address",
          "name": "owner",
          "type": "address"
        }
      ],
      "name": "RemovedOwner",
      "type": "event"
    },
    {
      "anonymous": false,
      "inputs": [
        {
          "indexed": false,
          "internalType": "address",
          "name": "module",
          "type": "address"
        },
        {
          "indexed": false,
          "internalType": "address",
          "name": "to",
          "type": "address"
        },
        {
          "indexed": false,
          "internalType": "uint256",
          "name": "value",
          "type": "uint256"
        },
        {
          "indexed": false,
          "internalType": "bytes",
          "name": "data",
          "type": "bytes"
        },
        {
          "indexed": false,
          "internalType": "enum Enum.Operation",
          "name": "operation",
          "type": "uint8"
        }
      ],
      "name": "SafeModuleTransaction",
      "type": "event"
    },
    {
      "anonymous": false,
      "inputs": [
        {
          "indexed": false,
          "internalType": "address",
          "name": "to",
          "type": "address"
        },
        {
          "indexed": false,
          "internalType": "uint256",
          "name": "value",
          "type": "uint256"
        },
        {
          "indexed": false,
          "internalType": "bytes",
          "name": "data",
          "type": "bytes"
        },
        {
          "indexed": false,
          "internalType": "enum Enum.Operation",
          "name": "operation",
          "type": "uint8"
        },
        {
          "indexed": false,
          "internalType": "uint256",
          "name": "safeTxGas",
          "type": "uint256"
        },
        {
          "indexed": false,
          "internalType": "uint256",
          "name": "baseGas",
          "type": "uint256"
        },
        {
          "indexed": false,
          "internalType": "uint256",
          "name": "gasPrice",
          "type": "uint256"
        },
        {
          "indexed": false,
          "internalType": "address",
          "name": "gasToken",
          "type": "address"
        },
        {
          "indexed": false,
          "internalType": "address payable",
          "name": "refundReceiver",
          "type": "address"
        },
        {
          "indexed": false,
          "internalType": "bytes",
          "name": "signatures",
          "type": "bytes"
        },
        {
          "indexed": false,
          "internalType": "bytes",
          "name": "additionalInfo",
          "type": "bytes"
        }
      ],
      "name": "SafeMultiSigTransaction",
      "type": "event"
    },
    {
      "anonymous": false,
      "inputs": [
        {
          "indexed": true,
          "internalType": "address",
          "name": "sender",
          "type": "address"
        },
        {
          "indexed": false,
          "internalType": "uint256",
          "name": "value",
          "type": "uint256"
        }
      ],
      "name": "SafeReceived",
      "type": "event"
    },
    {
      "anonymous": false,
      "inputs": [
        {
          "indexed": true,
          "internalType": "address",
          "name": "initiator",
          "type": "address"
        },
        {
          "indexed": false,
          "internalType": "address[]",
          "name": "owners",
          "type": "address[]"
        },
        {
          "indexed": false,
          "internalType": "uint256",
          "name": "threshold",
          "type": "uint256"
        },
        {
          "indexed": false,
          "internalType": "address",
          "name": "initializer",
          "type": "address"
        },
        {
          "indexed": false,
          "internalType": "address",
          "name": "fallbackHandler",
          "type": "address"
        }
      ],
      "name": "SafeSetup",
      "type": "event"
    },
    {
      "anonymous": false,
      "inputs": [
        {
          "indexed": true,
          "internalType": "bytes32",
          "name": "msgHash",
          "type": "bytes32"
        }
      ],
      "name": "SignMsg",
      "type": "event"
    },
    {
      "stateMutability": "nonpayable",
      "type": "fallback"
    },
    {
      "inputs": [],
      "name": "VERSION",
      "outputs": [
        {
          "internalType": "string",
          "name": "",
          "type": "string"
        }
      ],
      "stateMutability": "view",
      "type": "function"
    },
    {
      "inputs": [
        {
          "internalType": "address",
          "name": "owner",
          "type": "address"
        },
        {
          "internalType": "uint256",
          "name": "_threshold",
          "type": "uint256"
        }
      ],
      "name": "addOwnerWithThreshold",
      "outputs": [],
      "stateMutability": "nonpayable",
      "type": "function"
    },
    {
      "inputs": [
        {
          "internalType": "bytes32",
          "name": "hashToApprove",
          "type": "bytes32"
        }
      ],
      "name": "approveHash",
      "outputs": [],
      "stateMutability": "nonpayable",
      "type": "function"
    },
    {
      "inputs": [
        {
          "internalType": "address",
          "name": "",
          "type": "address"
        },
        {
          "internalType": "bytes32",
          "name": "",
          "type": "bytes32"
        }
      ],
      "name": "approvedHashes",
      "outputs": [
        {
          "internalType": "uint256",
          "name": "",
          "type": "uint256"
        }
      ],
      "stateMutability": "view",
      "type": "function"
    },
    {
      "inputs": [
        {
          "internalType": "uint256",
          "name": "_threshold",
          "type": "uint256"
        }
      ],
      "name": "changeThreshold",
      "outputs": [],
      "stateMutability": "nonpayable",
      "type": "function"
    },
    {
      "inputs": [
        {
          "internalType": "bytes32",
          "name": "dataHash",
          "type": "bytes32"
        },
        {
          "internalType": "bytes",
          "name": "data",
          "type": "bytes"
        },
        {
          "internalType": "bytes",
          "name": "signatures",
          "type": "bytes"
        },
        {
          "internalType": "uint256",
          "name": "requiredSignatures",
          "type": "uint256"
        }
      ],
      "name": "checkNSignatures",
      "outputs": [],
      "stateMutability": "view",
      "type": "function"
    },
    {
      "inputs": [
        {
          "internalType": "bytes32",
          "name": "dataHash",
          "type": "bytes32"
        },
        {
          "internalType": "bytes",
          "name": "data",
          "type": "bytes"
        },
        {
          "internalType": "bytes",
          "name": "signatures",
          "type": "bytes"
        }
      ],
      "name": "checkSignatures",
      "outputs": [],
      "stateMutability": "view",
      "type": "function"
    },
    {
      "inputs": [
        {
          "internalType": "address",
          "name": "prevModule",
          "type": "address"
        },
        {
          "internalType": "address",
          "name": "module",
          "type": "address"
        }
      ],
      "name": "disableModule",
      "outputs": [],
      "stateMutability": "nonpayable",
      "type": "function"
    },
    {
      "inputs": [],
      "name": "domainSeparator",
      "outputs": [
        {
          "internalType": "bytes32",
          "name": "",
          "type": "bytes32"
        }
      ],
      "stateMutability": "view",
      "type": "function"
    },
    {
      "inputs": [
        {
          "internalType": "address",
          "name": "module",
          "type": "address"
        }
      ],
      "name": "enableModule",
      "outputs": [],
      "stateMutability": "nonpayable",
      "type": "function"
    },
    {
      "inputs": [
        {
          "internalType": "address",
          "name": "to",
          "type": "address"
        },
        {
          "internalType": "uint256",
          "name": "value",
          "type": "uint256"
        },
        {
          "internalType": "bytes",
          "name": "data",
          "type": "bytes"
        },
        {
          "internalType": "enum Enum.Operation",
          "name": "operation",
          "type": "uint8"
        },
        {
          "internalType": "uint256",
          "name": "safeTxGas",
          "type": "uint256"
        },
        {
          "internalType": "uint256",
          "name": "baseGas",
          "type": "uint256"
        },
        {
          "internalType": "uint256",
          "name": "gasPrice",
          "type": "uint256"
        },
        {
          "internalType": "address",
          "name": "gasToken",
          "type": "address"
        },
        {
          "internalType": "address",
          "name": "refundReceiver",
          "type": "address"
        },
        {
          "internalType": "uint256",
          "name": "_nonce",
          "type": "uint256"
        }
      ],
      "name": "encodeTransactionData",
      "outputs": [
        {
          "internalType": "bytes",
          "name": "",
          "type": "bytes"
        }
      ],
      "stateMutability": "view",
      "type": "function"
    },
    {
      "inputs": [
        {
          "internalType": "address",
          "name": "to",
          "type": "address"
        },
        {
          "internalType": "uint256",
          "name": "value",
          "type": "uint256"
        },
        {
          "internalType": "bytes",
          "name": "data",
          "type": "bytes"
        },
        {
          "internalType": "enum Enum.Operation",
          "name": "operation",
          "type": "uint8"
        },
        {
          "internalType": "uint256",
          "name": "safeTxGas",
          "type": "uint256"
        },
        {
          "internalType": "uint256",
          "name": "baseGas",
          "type": "uint256"
        },
        {
          "internalType": "uint256",
          "name": "gasPrice",
          "type": "uint256"
        },
        {
          "internalType": "address",
          "name": "gasToken",
          "type": "address"
        },
        {
          "internalType": "address payable",
          "name": "refundReceiver",
          "type": "address"
        },
        {
          "internalType": "bytes",
          "name": "signatures",
          "type": "bytes"
        }
      ],
      "name": "execTransaction",
      "outputs": [
        {
          "internalType": "bool",
          "name": "",
          "type": "bool"
        }
      ],
      "stateMutability": "payable",
      "type": "function"
    },
    {
      "inputs": [
        {
          "internalType": "address",
          "name": "to",
          "type": "address"
        },
        {
          "internalType": "uint256",
          "name": "value",
          "type": "uint256"
        },
        {
          "internalType": "bytes",
          "name": "data",
          "type": "bytes"
        },
        {
          "internalType": "enum Enum.Operation",
          "name": "operation",
          "type": "uint8"
        }
      ],
      "name": "execTransactionFromModule",
      "outputs": [
        {
          "internalType": "bool",
          "name": "success",
          "type": "bool"
        }
      ],
      "stateMutability": "nonpayable",
      "type": "function"
    },
    {
      "inputs": [
        {
          "internalType": "address",
          "name": "to",
          "type": "address"
        },
        {
          "internalType": "uint256",
          "name": "value",
          "type": "uint256"
        },
        {
          "internalType": "bytes",
          "name": "data",
          "type": "bytes"
        },
        {
          "internalType": "enum Enum.Operation",
          "name": "operation",
          "type": "uint8"
        }
      ],
      "name": "execTransactionFromModuleReturnData",
      "outputs": [
        {
          "internalType": "bool",
          "name": "success",
          "type": "bool"
        },
        {
          "internalType": "bytes",
          "name": "returnData",
          "type": "bytes"
        }
      ],
      "stateMutability": "nonpayable",
      "type": "function"
    },
    {
      "inputs": [],
      "name": "getChainId",
      "outputs": [
        {
          "internalType": "uint256",
          "name": "",
          "type": "uint256"
        }
      ],
      "stateMutability": "view",
      "type": "function"
    },
    {
      "inputs": [
        {
          "internalType": "address",
          "name": "start",
          "type": "address"
        },
        {
          "internalType": "uint256",
          "name": "pageSize",
          "type": "uint256"
        }
      ],
      "name": "getModulesPaginated",
      "outputs": [
        {
          "internalType": "address[]",
          "name": "array",
          "type": "address[]"
        },
        {
          "internalType": "address",
          "name": "next",
          "type": "address"
        }
      ],
      "stateMutability": "view",
      "type": "function"
    },
    {
      "inputs": [],
      "name": "getOwners",
      "outputs": [
        {
          "internalType": "address[]",
          "name": "",
          "type": "address[]"
        }
      ],
      "stateMutability": "view",
      "type": "function"
    },
    {
      "inputs": [
        {
          "internalType": "uint256",
          "name": "offset",
          "type": "uint256"
        },
        {
          "internalType": "uint256",
          "name": "length",
          "type": "uint256"
        }
      ],
      "name": "getStorageAt",
      "outputs": [
        {
          "internalType": "bytes",
          "name": "",
          "type": "bytes"
        }
      ],
      "stateMutability": "view",
      "type": "function"
    },
    {
      "inputs": [],
      "name": "getThreshold",
      "outputs": [
        {
          "internalType": "uint256",
          "name": "",
          "type": "uint256"
        }
      ],
      "stateMutability": "view",
      "type": "function"
    },
    {
      "inputs": [
        {
          "internalType": "address",
          "name": "to",
          "type": "address"
        },
        {
          "internalType": "uint256",
          "name": "value",
          "type": "uint256"
        },
        {
          "internalType": "bytes",
          "name": "data",
          "type": "bytes"
        },
        {
          "internalType": "enum Enum.Operation",
          "name": "operation",
          "type": "uint8"
        },
        {
          "internalType": "uint256",
          "name": "safeTxGas",
          "type": "uint256"
        },
        {
          "internalType": "uint256",
          "name": "baseGas",
          "type": "uint256"
        },
        {
          "internalType": "uint256",
          "name": "gasPrice",
          "type": "uint256"
        },
        {
          "internalType": "address",
          "name": "gasToken",
          "type": "address"
        },
        {
          "internalType": "address",
          "name": "refundReceiver",
          "type": "address"
        },
        {
          "internalType": "uint256",
          "name": "_nonce",
          "type": "uint256"
        }
      ],
      "name": "getTransactionHash",
      "outputs": [
        {
          "internalType": "bytes32",
          "name": "",
          "type": "bytes32"
        }
      ],
      "stateMutability": "view",
      "type": "function"
    },
    {
      "inputs": [
        {
          "internalType": "address",
          "name": "module",
          "type": "address"
        }
      ],
      "name": "isModuleEnabled",
      "outputs": [
        {
          "internalType": "bool",
          "name": "",
          "type": "bool"
        }
      ],
      "stateMutability": "view",
      "type": "function"
    },
    {
      "inputs": [
        {
          "internalType": "address",
          "name": "owner",
          "type": "address"
        }
      ],
      "name": "isOwner",
      "outputs": [
        {
          "internalType": "bool",
          "name": "",
          "type": "bool"
        }
      ],
      "stateMutability": "view",
      "type": "function"
    },
    {
      "inputs": [],
      "name": "nonce",
      "outputs": [
        {
          "internalType": "uint256",
          "name": "",
          "type": "uint256"
        }
      ],
      "stateMutability": "view",
      "type": "function"
    },
    {
      "inputs": [
        {
          "internalType": "address",
          "name": "prevOwner",
          "type": "address"
        },
        {
          "internalType": "address",
          "name": "owner",
          "type": "address"
        },
        {
          "internalType": "uint256",
          "name": "_threshold",
          "type": "uint256"
        }
      ],
      "name": "removeOwner",
      "outputs": [],
      "stateMutability": "nonpayable",
      "type": "function"
    },
    {
      "inputs": [
        {
          "internalType": "address",
          "name": "to",
          "type": "address"
        },
        {
          "internalType": "uint256",
          "name": "value",
          "type": "uint256"
        },
        {
          "internalType": "bytes",
          "name": "data",
          "type": "bytes"
        },
        {
          "internalType": "enum Enum.Operation",
          "name": "operation",
          "type": "uint8"
        }
      ],
      "name": "requiredTxGas",
      "outputs": [
        {
          "internalType": "uint256",
          "name": "",
          "type": "uint256"
        }
      ],
      "stateMutability": "nonpayable",
      "type": "function"
    },
    {
      "inputs": [
        {
          "internalType": "address",
          "name": "handler",
          "type": "address"
        }
      ],
      "name": "setFallbackHandler",
      "outputs": [],
      "stateMutability": "nonpayable",
      "type": "function"
    },
    {
      "inputs": [
        {
          "internalType": "address",
          "name": "guard",
          "type": "address"
        }
      ],
      "name": "setGuard",
      "outputs": [],
      "stateMutability": "nonpayable",
      "type": "function"
    },
    {
      "inputs": [
        {
          "internalType": "address[]",
          "name": "_owners",
          "type": "address[]"
        },
        {
          "internalType": "uint256",
          "name": "_threshold",
          "type": "uint256"
        },
        {
          "internalType": "address",
          "name": "to",
          "type": "address"
        },
        {
          "internalType": "bytes",
          "name": "data",
          "type": "bytes"
        },
        {
          "internalType": "address",
          "name": "fallbackHandler",
          "type": "address"
        },
        {
          "internalType": "address",
          "name": "paymentToken",
          "type": "address"
        },
        {
          "internalType": "uint256",
          "name": "payment",
          "type": "uint256"
        },
        {
          "internalType": "address payable",
          "name": "paymentReceiver",
          "type": "address"
        }
      ],
      "name": "setup",
      "outputs": [],
      "stateMutability": "nonpayable",
      "type": "function"
    },
    {
      "inputs": [
        {
          "internalType": "bytes32",
          "name": "",
          "type": "bytes32"
        }
      ],
      "name": "signedMessages",
      "outputs": [
        {
          "internalType": "uint256",
          "name": "",
          "type": "uint256"
        }
      ],
      "stateMutability": "view",
      "type": "function"
    },
    {
      "inputs": [
        {
          "internalType": "address",
          "name": "targetContract",
          "type": "address"
        },
        {
          "internalType": "bytes",
          "name": "calldataPayload",
          "type": "bytes"
        }
      ],
      "name": "simulateAndRevert",
      "outputs": [],
      "stateMutability": "nonpayable",
      "type": "function"
    },
    {
      "inputs": [
        {
          "internalType": "address",
          "name": "prevOwner",
          "type": "address"
        },
        {
          "internalType": "address",
          "name": "oldOwner",
          "type": "address"
        },
        {
          "internalType": "address",
          "name": "newOwner",
          "type": "address"
        }
      ],
      "name": "swapOwner",
      "outputs": [],
      "stateMutability": "nonpayable",
      "type": "function"
    },
    {
      "stateMutability": "payable",
      "type": "receive"
    }
  ],
  "transactionHash": "0xf12022c9255bee85f7891959aadcd772642dda79ea94b39d7f1462f392f6f0ec",
  "args": [],
  "solcInputHash": "81376be93b250383cfe94bfd53ad7871",
  "bytecode": "0x608060405234801561001057600080fd5b506001600455613529806100256000396000f3fe6080604052600436106101dc5760003560e01c8063affed0e011610102578063e19a9dd911610095578063f08a032311610064578063f08a032314610620578063f698da2514610640578063f8dc5dd9146106a7578063ffa1ad74146106c757610218565b8063e19a9dd9146105ab578063e318b52b146105cb578063e75235b8146105eb578063e86637db1461060057610218565b8063cc2f8452116100d1578063cc2f84521461051d578063d4d9bdcd1461054b578063d8d11f781461056b578063e009cfde1461058b57610218565b8063affed0e0146104a7578063b4faba09146104bd578063b63e800d146104dd578063c4ca3a9c146104fd57610218565b80635624b25b1161017a5780636a761202116101495780636a7612021461041a5780637d8329741461042d578063934f3a1114610465578063a0e67e2b1461048557610218565b80635624b25b146103805780635ae6bd37146103ad578063610b5925146103da578063694e80c3146103fa57610218565b80632f54bf6e116101b65780632f54bf6e146102f55780633408e47014610315578063468721a7146103325780635229073f1461035257610218565b80630d582f131461027e57806312fb68e0146102a05780632d9ad53d146102c057610218565b366102185760405134815233907f3d0ce9bfc3ed7d6862dbb28b2dea94561fe714a1b4d019aa8af39730d1ad7c3d9060200160405180910390a2005b34801561022457600080fd5b507f6c9a6c4a39284e37ed1cf53d337577d14212a4870fb976a4366c693b939918d580548061024f57005b36600080373360601b365260008060143601600080855af190503d6000803e80610278573d6000fd5b503d6000f35b34801561028a57600080fd5b5061029e61029936600461292a565b610710565b005b3480156102ac57600080fd5b5061029e6102bb3660046129f9565b61089c565b3480156102cc57600080fd5b506102e06102db366004612a6e565b610dc4565b60405190151581526020015b60405180910390f35b34801561030157600080fd5b506102e0610310366004612a6e565b610dff565b34801561032157600080fd5b50465b6040519081526020016102ec565b34801561033e57600080fd5b506102e061034d366004612a9a565b610e37565b34801561035e57600080fd5b5061037261036d366004612a9a565b610e8d565b6040516102ec929190612b51565b34801561038c57600080fd5b506103a061039b366004612b6c565b610ec3565b6040516102ec9190612b8e565b3480156103b957600080fd5b506103246103c8366004612ba1565b60076020526000908152604090205481565b3480156103e657600080fd5b5061029e6103f5366004612a6e565b610f49565b34801561040657600080fd5b5061029e610415366004612ba1565b6110a3565b6102e0610428366004612c03565b611153565b34801561043957600080fd5b5061032461044836600461292a565b600860209081526000928352604080842090915290825290205481565b34801561047157600080fd5b5061029e610480366004612cdc565b6111fb565b34801561049157600080fd5b5061049a61125d565b6040516102ec9190612d8d565b3480156104b357600080fd5b5061032460055481565b3480156104c957600080fd5b5061029e6104d8366004612da0565b61134e565b3480156104e957600080fd5b5061029e6104f8366004612df0565b611371565b34801561050957600080fd5b50610324610518366004612ee5565b611492565b34801561052957600080fd5b5061053d61053836600461292a565b61152c565b6040516102ec929190612f56565b34801561055757600080fd5b5061029e610566366004612ba1565b611626565b34801561057757600080fd5b50610324610586366004612f81565b6116d3565b34801561059757600080fd5b5061029e6105a6366004613042565b611700565b3480156105b757600080fd5b5061029e6105c6366004612a6e565b611847565b3480156105d757600080fd5b5061029e6105e636600461307b565b6118ac565b3480156105f757600080fd5b50600454610324565b34801561060c57600080fd5b506103a061061b366004612f81565b611ae3565b34801561062c57600080fd5b5061029e61063b366004612a6e565b611c26565b34801561064c57600080fd5b5061032460007f47e79534a245952e8b16893a336b85a3d9ea9fa8c573f3d803afb92a794692184660408051602081019390935282015230606082015260800160405160208183030381529060405280519060200120905090565b3480156106b357600080fd5b5061029e6106c23660046130c6565b611c8f565b3480156106d357600080fd5b506103a06040518060400160405280600581526020017f312e332e3000000000000000000000000000000000000000000000000000000081525081565b610718611e32565b6001600160a01b0382161580159061073a57506001600160a01b038216600114155b801561074f57506001600160a01b0382163014155b6107885760405162461bcd60e51b8152602060048201526005602482015264475332303360d81b60448201526064015b60405180910390fd5b6001600160a01b0382811660009081526002602052604090205416156107d85760405162461bcd60e51b815260206004820152600560248201526411d4cc8c0d60da1b604482015260640161077f565b60026020527fe90b7bceb6e7df5418fb78d8ee546e97c83a08bbccc01a0644d599ccd2a7c2e080546001600160a01b038481166000818152604081208054939094166001600160a01b0319938416179093556001835283549091161790915560038054916108458361311d565b90915550506040516001600160a01b03831681527f9465fa0c962cc76958e6373a993326400c1c94f8be2fe3a952adfa7f60b2ea269060200160405180910390a1806004541461089857610898816110a3565b5050565b6108a7816041611e83565b825110156108f75760405162461bcd60e51b815260206004820152600560248201527f4753303230000000000000000000000000000000000000000000000000000000604482015260640161077f565b6000808060008060005b86811015610db8576041818102890160208101516040820151919092015160ff169550909350915083610b4657919350839161093e876041611e83565b82101561098d5760405162461bcd60e51b815260206004820152600560248201527f4753303231000000000000000000000000000000000000000000000000000000604482015260640161077f565b875161099a836020611ebc565b11156109e85760405162461bcd60e51b815260206004820152600560248201527f4753303232000000000000000000000000000000000000000000000000000000604482015260640161077f565b602082890181015189519091610a0b908390610a05908790611ebc565b90611ebc565b1115610a595760405162461bcd60e51b815260206004820152600560248201527f4753303233000000000000000000000000000000000000000000000000000000604482015260640161077f565b6040516320c13b0b60e01b8082528a8501602001916001600160a01b038916906320c13b0b90610a8f908f908690600401613138565b602060405180830381865afa158015610aac573d6000803e3d6000fd5b505050506040513d601f19601f82011682018060405250810190610ad0919061315d565b7fffffffff000000000000000000000000000000000000000000000000000000001614610b3f5760405162461bcd60e51b815260206004820152600560248201527f4753303234000000000000000000000000000000000000000000000000000000604482015260640161077f565b5050610d06565b8360ff1660011415610be1579193508391336001600160a01b0384161480610b9057506001600160a01b03851660009081526008602090815260408083208d845290915290205415155b610bdc5760405162461bcd60e51b815260206004820152600560248201527f4753303235000000000000000000000000000000000000000000000000000000604482015260640161077f565b610d06565b601e8460ff161115610ca6576040517f19457468657265756d205369676e6564204d6573736167653a0a3332000000006020820152603c81018b9052600190605c0160405160208183030381529060405280519060200120600486610c46919061319f565b6040805160008152602081018083529390935260ff90911690820152606081018590526080810184905260a0016020604051602081039080840390855afa158015610c95573d6000803e3d6000fd5b505050602060405103519450610d06565b6040805160008152602081018083528c905260ff861691810191909152606081018490526080810183905260019060a0016020604051602081039080840390855afa158015610cf9573d6000803e3d6000fd5b5050506020604051035194505b856001600160a01b0316856001600160a01b0316118015610d4057506001600160a01b038581166000908152600260205260409020541615155b8015610d5657506001600160a01b038516600114155b610da25760405162461bcd60e51b815260206004820152600560248201527f4753303236000000000000000000000000000000000000000000000000000000604482015260640161077f565b8495508080610db09061311d565b915050610901565b50505050505050505050565b600060016001600160a01b03831614801590610df957506001600160a01b038281166000908152600160205260409020541615155b92915050565b60006001600160a01b038216600114801590610df95750506001600160a01b0390811660009081526002602052604090205416151590565b60007fb648d3644f584ed1c2232d53c46d87e693586486ad0d1175f8656013110b714e3386868686604051610e709594939291906131fa565b60405180910390a1610e8485858585611ed8565b95945050505050565b60006060610e9d86868686610e37565b915060405160203d0181016040523d81523d6000602083013e8091505094509492505050565b60606000610ed2836020613245565b67ffffffffffffffff811115610eea57610eea612956565b6040519080825280601f01601f191660200182016040528015610f14576020820181803683370190505b50905060005b83811015610f41578481015460208083028401015280610f398161311d565b915050610f1a565b509392505050565b610f51611e32565b6001600160a01b03811615801590610f7357506001600160a01b038116600114155b610fa75760405162461bcd60e51b8152602060048201526005602482015264475331303160d81b604482015260640161077f565b6001600160a01b03818116600090815260016020526040902054161561100f5760405162461bcd60e51b815260206004820152600560248201527f4753313032000000000000000000000000000000000000000000000000000000604482015260640161077f565b600160208181527fcc69885fda6bcc1a4ace058b4a62bf5e179ea78fd58a1ccd71c22cc9b688792f80546001600160a01b03858116600081815260408082208054949095166001600160a01b031994851617909455959095528254168417909155519182527fecdf3a3effea5783a3c4c2140e677577666428d44ed9d474a0b3a4c9943f844091015b60405180910390a150565b6110ab611e32565b6003548111156110e55760405162461bcd60e51b8152602060048201526005602482015264475332303160d81b604482015260640161077f565b600181101561111e5760405162461bcd60e51b815260206004820152600560248201526423a999181960d91b604482015260640161077f565b60048190556040518181527f610f7ff2b304ae8903c3de74c60c6ab1f7d6226b3f52c5161905bb5ad4039c9390602001611098565b600554600454604080516020810193909352339083015260608281019190915260009160800160405160208183030381529060405290507f66753cd2356569ee081232e3be8909b950e0a76c1f8460c3a5e3c2be32b11bed8d8d8d8d8d8d8d8d8d8d8d8c6040516111cf9c9b9a9998979695949392919061328d565b60405180910390a16111ea8d8d8d8d8d8d8d8d8d8d8d611fc7565b9d9c50505050505050505050505050565b6004548061124b5760405162461bcd60e51b815260206004820152600560248201527f4753303031000000000000000000000000000000000000000000000000000000604482015260640161077f565b6112578484848461089c565b50505050565b6060600060035467ffffffffffffffff81111561127c5761127c612956565b6040519080825280602002602001820160405280156112a5578160200160208202803683370190505b506001600090815260026020527fe90b7bceb6e7df5418fb78d8ee546e97c83a08bbccc01a0644d599ccd2a7c2e054919250906001600160a01b03165b6001600160a01b038116600114611346578083838151811061130657611306613325565b6001600160a01b0392831660209182029290920181019190915291811660009081526002909252604090912054168161133e8161311d565b9250506112e2565b509092915050565b600080825160208401855af480600052503d6020523d600060403e60403d016000fd5b6113af8a8a808060200260200160405190810160405280939291908181526020018383602002808284376000920191909152508c9250612340915050565b6001600160a01b038416156113e6576113e6847f6c9a6c4a39284e37ed1cf53d337577d14212a4870fb976a4366c693b939918d555565b6114268787878080601f01602080910402602001604051908101604052809392919081815260200183838082843760009201919091525061258692505050565b811561143d5761143b826000600186856126b0565b505b336001600160a01b03167f141df868a6331af528e38c83b7aa03edc19be66e37ae67f9285bf4f8e3c6a1a88b8b8b8b8960405161147e95949392919061333b565b60405180910390a250505050505050505050565b6000805a90506114db878787878080601f01602080910402602001604051908101604052809392919081815260200183838082843760009201919091525089925050505a6127e6565b6114e457600080fd5b60005a6114f190836133a7565b90508060405160200161150691815260200190565b60408051601f198184030181529082905262461bcd60e51b825261077f91600401612b8e565b606060008267ffffffffffffffff81111561154957611549612956565b604051908082528060200260200182016040528015611572578160200160208202803683370190505b506001600160a01b0380861660009081526001602052604081205492945091165b6001600160a01b038116158015906115b557506001600160a01b038116600114155b80156115c057508482105b1561161857808483815181106115d8576115d8613325565b6001600160a01b039283166020918202929092018101919091529181166000908152600190925260409091205416816116108161311d565b925050611593565b908352919491935090915050565b336000908152600260205260409020546001600160a01b031661168b5760405162461bcd60e51b815260206004820152600560248201527f4753303330000000000000000000000000000000000000000000000000000000604482015260640161077f565b336000818152600860209081526040808320858452909152808220600190555183917ff2a0eb156472d1440255b0d7c1e19cc07115d1051fe605b0dce69acfec884d9c91a350565b60006116e88c8c8c8c8c8c8c8c8c8c8c611ae3565b8051906020012090509b9a5050505050505050505050565b611708611e32565b6001600160a01b0381161580159061172a57506001600160a01b038116600114155b61175e5760405162461bcd60e51b8152602060048201526005602482015264475331303160d81b604482015260640161077f565b6001600160a01b038281166000908152600160205260409020548116908216146117ca5760405162461bcd60e51b815260206004820152600560248201527f4753313033000000000000000000000000000000000000000000000000000000604482015260640161077f565b6001600160a01b038181166000818152600160209081526040808320805488871685528285208054919097166001600160a01b03199182161790965592849052825490941690915591519081527faab4fa2b463f581b2b32cb3b7e3b704b9ce37cc209b5fb4d77e593ace405427691015b60405180910390a15050565b61184f611e32565b7f4a204f620c8c5ccdca3fd54d003badd85ba500436a431f0cbda4f558c93c34c88181556040516001600160a01b03831681527f1151116914515bc0891ff9047a6cb32cf902546f83066499bcf8ba33d2353fa29060200161183b565b6118b4611e32565b6001600160a01b038116158015906118d657506001600160a01b038116600114155b80156118eb57506001600160a01b0381163014155b61191f5760405162461bcd60e51b8152602060048201526005602482015264475332303360d81b604482015260640161077f565b6001600160a01b03818116600090815260026020526040902054161561196f5760405162461bcd60e51b815260206004820152600560248201526411d4cc8c0d60da1b604482015260640161077f565b6001600160a01b0382161580159061199157506001600160a01b038216600114155b6119c55760405162461bcd60e51b8152602060048201526005602482015264475332303360d81b604482015260640161077f565b6001600160a01b03838116600090815260026020526040902054811690831614611a195760405162461bcd60e51b8152602060048201526005602482015264475332303560d81b604482015260640161077f565b6001600160a01b038281166000818152600260209081526040808320805487871680865283862080549289166001600160a01b0319938416179055968a1685528285208054821690971790965592849052825490941690915591519081527ff8d49fc529812e9a7c5c50e69c20f0dccc0db8fa95c98bc58cc9a4f1c1299eaf910160405180910390a16040516001600160a01b03821681527f9465fa0c962cc76958e6373a993326400c1c94f8be2fe3a952adfa7f60b2ea269060200160405180910390a1505050565b606060007fbb8310d486368db6bd6f849402fdd73ad53d316b5a4b2644ad6efe0f941286d860001b8d8d8d8d604051611b1d9291906133be565b604051908190038120611b43949392918e908e908e908e908e908e908e906020016133ce565b60408051601f1981840301815291905280516020909101209050601960f81b600160f81b611bc160007f47e79534a245952e8b16893a336b85a3d9ea9fa8c573f3d803afb92a794692184660408051602081019390935282015230606082015260800160405160208183030381529060405280519060200120905090565b6040517fff0000000000000000000000000000000000000000000000000000000000000093841660208201529290911660218301526022820152604281018290526062016040516020818303038152906040529150509b9a5050505050505050505050565b611c2e611e32565b611c56817f6c9a6c4a39284e37ed1cf53d337577d14212a4870fb976a4366c693b939918d555565b6040516001600160a01b03821681527f5ac6c46c93c8d0e53714ba3b53db3e7c046da994313d7ed0d192028bc7c228b090602001611098565b611c97611e32565b806001600354611ca791906133a7565b1015611cdd5760405162461bcd60e51b8152602060048201526005602482015264475332303160d81b604482015260640161077f565b6001600160a01b03821615801590611cff57506001600160a01b038216600114155b611d335760405162461bcd60e51b8152602060048201526005602482015264475332303360d81b604482015260640161077f565b6001600160a01b03838116600090815260026020526040902054811690831614611d875760405162461bcd60e51b8152602060048201526005602482015264475332303560d81b604482015260640161077f565b6001600160a01b03828116600081815260026020526040808220805488861684529183208054929095166001600160a01b03199283161790945591815282549091169091556003805491611dda8361343e565b90915550506040516001600160a01b03831681527ff8d49fc529812e9a7c5c50e69c20f0dccc0db8fa95c98bc58cc9a4f1c1299eaf9060200160405180910390a18060045414611e2d57611e2d816110a3565b505050565b333014611e815760405162461bcd60e51b815260206004820152600560248201527f4753303331000000000000000000000000000000000000000000000000000000604482015260640161077f565b565b600082611e9257506000610df9565b6000611e9e8385613245565b905082611eab8583613455565b14611eb557600080fd5b9392505050565b600080611ec98385613477565b905083811015611eb557600080fd5b600033600114801590611f025750336000908152600160205260409020546001600160a01b031615155b611f4e5760405162461bcd60e51b815260206004820152600560248201527f4753313034000000000000000000000000000000000000000000000000000000604482015260640161077f565b611f5b858585855a6127e6565b90508015611f935760405133907f6895c13664aa4f67288b25d7a21d7aaa34916e355fb9b6fae0a139a9085becb890600090a2611fbf565b60405133907facd2c8702804128fdb0db2bb49f6d127dd0181c13fd45dbfe16de0930e2bd37590600090a25b949350505050565b6000806000611fe18e8e8e8e8e8e8e8e8e8e600554611ae3565b600580549192506000611ff38361311d565b909155505080516020820120915061200c8282866111fb565b5060006120377f4a204f620c8c5ccdca3fd54d003badd85ba500436a431f0cbda4f558c93c34c85490565b90506001600160a01b038116156120bd57806001600160a01b03166375f0bb528f8f8f8f8f8f8f8f8f8f8f336040518d63ffffffff1660e01b815260040161208a9c9b9a9998979695949392919061348f565b600060405180830381600087803b1580156120a457600080fd5b505af11580156120b8573d6000803e3d6000fd5b505050505b6120e96120cc8a6109c4613477565b603f6120d98c6040613245565b6120e39190613455565b9061282c565b6120f5906101f4613477565b5a10156121445760405162461bcd60e51b815260206004820152600560248201527f4753303130000000000000000000000000000000000000000000000000000000604482015260640161077f565b60005a90506121b58f8f8f8f8080601f016020809104026020016040519081016040528093929190818152602001838380828437600081840152601f19601f820116905080830192505050505050508e8c6000146121a2578e6127e6565b6109c45a6121b091906133a7565b6127e6565b93506121c25a8290612843565b905083806121cf57508915155b806121d957508715155b6122255760405162461bcd60e51b815260206004820152600560248201527f4753303133000000000000000000000000000000000000000000000000000000604482015260640161077f565b6000881561223d5761223a828b8b8b8b6126b0565b90505b84156122815760408051858152602081018390527f442e715f626346e8c54381002da614f62bee8d27386535b2521ec8540898556e910160405180910390a16122bb565b60408051858152602081018390527f23428b18acfb3ea64b08dc0c1d296ea9c09702c09083ca5272e64d115b687d23910160405180910390a15b50506001600160a01b0381161561232f57604051631264e26d60e31b81526004810183905283151560248201526001600160a01b03821690639327136890604401600060405180830381600087803b15801561231657600080fd5b505af115801561232a573d6000803e3d6000fd5b505050505b50509b9a5050505050505050505050565b600454156123905760405162461bcd60e51b815260206004820152600560248201527f4753323030000000000000000000000000000000000000000000000000000000604482015260640161077f565b81518111156123c95760405162461bcd60e51b8152602060048201526005602482015264475332303160d81b604482015260640161077f565b60018110156124025760405162461bcd60e51b815260206004820152600560248201526423a999181960d91b604482015260640161077f565b600160005b835181101561255357600084828151811061242457612424613325565b6020026020010151905060006001600160a01b0316816001600160a01b03161415801561245b57506001600160a01b038116600114155b801561247057506001600160a01b0381163014155b801561248e5750806001600160a01b0316836001600160a01b031614155b6124c25760405162461bcd60e51b8152602060048201526005602482015264475332303360d81b604482015260640161077f565b6001600160a01b0381811660009081526002602052604090205416156125125760405162461bcd60e51b815260206004820152600560248201526411d4cc8c0d60da1b604482015260640161077f565b6001600160a01b03928316600090815260026020526040902080546001600160a01b031916938216939093179092558061254b8161311d565b915050612407565b506001600160a01b0316600090815260026020526040902080546001600160a01b03191660011790559051600355600455565b600160008190526020527fcc69885fda6bcc1a4ace058b4a62bf5e179ea78fd58a1ccd71c22cc9b688792f546001600160a01b0316156126085760405162461bcd60e51b815260206004820152600560248201527f4753313030000000000000000000000000000000000000000000000000000000604482015260640161077f565b6001600081905260208190527fcc69885fda6bcc1a4ace058b4a62bf5e179ea78fd58a1ccd71c22cc9b688792f80546001600160a01b03191690911790556001600160a01b03821615610898576126648260008360015a6127e6565b6108985760405162461bcd60e51b815260206004820152600560248201527f4753303030000000000000000000000000000000000000000000000000000000604482015260640161077f565b6000806001600160a01b038316156126c857826126ca565b325b90506001600160a01b038416612775576126fc3a86106126ea573a6126ec565b855b6126f68989611ebc565b90611e83565b6040519092506001600160a01b0382169083156108fc029084906000818181858888f193505050506127705760405162461bcd60e51b815260206004820152600560248201527f4753303131000000000000000000000000000000000000000000000000000000604482015260640161077f565b6127dc565b612783856126f68989611ebc565b915061279084828461285e565b6127dc5760405162461bcd60e51b815260206004820152600560248201527f4753303132000000000000000000000000000000000000000000000000000000604482015260640161077f565b5095945050505050565b600060018360018111156127fc576127fc6131c2565b1415612815576000808551602087018986f49050610e84565b600080855160208701888a87f19695505050505050565b60008183101561283c5781611eb5565b5090919050565b60008282111561285257600080fd5b6000611fbf83856133a7565b604080516001600160a01b03841660248201526044808201849052825180830390910181526064909101909152602080820180517bffffffffffffffffffffffffffffffffffffffffffffffffffffffff1663a9059cbb60e01b1781528251600093929184919082896127105a03f13d80156128e557602081146128ed57600093506128f8565b8193506128f8565b600051158215171593505b5050509392505050565b6001600160a01b038116811461291757600080fd5b50565b803561292581612902565b919050565b6000806040838503121561293d57600080fd5b823561294881612902565b946020939093013593505050565b634e487b7160e01b600052604160045260246000fd5b600082601f83011261297d57600080fd5b813567ffffffffffffffff8082111561299857612998612956565b604051601f8301601f19908116603f011681019082821181831017156129c0576129c0612956565b816040528381528660208588010111156129d957600080fd5b836020870160208301376000602085830101528094505050505092915050565b60008060008060808587031215612a0f57600080fd5b84359350602085013567ffffffffffffffff80821115612a2e57600080fd5b612a3a8883890161296c565b94506040870135915080821115612a5057600080fd5b50612a5d8782880161296c565b949793965093946060013593505050565b600060208284031215612a8057600080fd5b8135611eb581612902565b80356002811061292557600080fd5b60008060008060808587031215612ab057600080fd5b8435612abb81612902565b935060208501359250604085013567ffffffffffffffff811115612ade57600080fd5b612aea8782880161296c565b925050612af960608601612a8b565b905092959194509250565b6000815180845260005b81811015612b2a57602081850181015186830182015201612b0e565b81811115612b3c576000602083870101525b50601f01601f19169290920160200192915050565b8215158152604060208201526000611fbf6040830184612b04565b60008060408385031215612b7f57600080fd5b50508035926020909101359150565b602081526000611eb56020830184612b04565b600060208284031215612bb357600080fd5b5035919050565b60008083601f840112612bcc57600080fd5b50813567ffffffffffffffff811115612be457600080fd5b602083019150836020828501011115612bfc57600080fd5b9250929050565b60008060008060008060008060008060006101408c8e031215612c2557600080fd5b612c2e8c61291a565b9a5060208c0135995067ffffffffffffffff8060408e01351115612c5157600080fd5b612c618e60408f01358f01612bba565b909a509850612c7260608e01612a8b565b975060808d0135965060a08d0135955060c08d01359450612c9560e08e0161291a565b9350612ca46101008e0161291a565b9250806101208e01351115612cb857600080fd5b50612cca8d6101208e01358e0161296c565b90509295989b509295989b9093969950565b600080600060608486031215612cf157600080fd5b83359250602084013567ffffffffffffffff80821115612d1057600080fd5b612d1c8783880161296c565b93506040860135915080821115612d3257600080fd5b50612d3f8682870161296c565b9150509250925092565b600081518084526020808501945080840160005b83811015612d825781516001600160a01b031687529582019590820190600101612d5d565b509495945050505050565b602081526000611eb56020830184612d49565b60008060408385031215612db357600080fd5b8235612dbe81612902565b9150602083013567ffffffffffffffff811115612dda57600080fd5b612de68582860161296c565b9150509250929050565b6000806000806000806000806000806101008b8d031215612e1057600080fd5b8a3567ffffffffffffffff80821115612e2857600080fd5b818d0191508d601f830112612e3c57600080fd5b813581811115612e4b57600080fd5b8e60208260051b8501011115612e6057600080fd5b60208381019d50909b508d01359950612e7b60408e0161291a565b985060608d0135915080821115612e9157600080fd5b50612e9e8d828e01612bba565b9097509550612eb1905060808c0161291a565b9350612ebf60a08c0161291a565b925060c08b01359150612ed460e08c0161291a565b90509295989b9194979a5092959850565b600080600080600060808688031215612efd57600080fd5b8535612f0881612902565b945060208601359350604086013567ffffffffffffffff811115612f2b57600080fd5b612f3788828901612bba565b9094509250612f4a905060608701612a8b565b90509295509295909350565b604081526000612f696040830185612d49565b90506001600160a01b03831660208301529392505050565b60008060008060008060008060008060006101408c8e031215612fa357600080fd5b8b35612fae81612902565b9a5060208c0135995060408c013567ffffffffffffffff811115612fd157600080fd5b612fdd8e828f01612bba565b909a509850612ff0905060608d01612a8b565b965060808c0135955060a08c0135945060c08c0135935060e08c013561301581612902565b92506101008c013561302681612902565b809250506101208c013590509295989b509295989b9093969950565b6000806040838503121561305557600080fd5b823561306081612902565b9150602083013561307081612902565b809150509250929050565b60008060006060848603121561309057600080fd5b833561309b81612902565b925060208401356130ab81612902565b915060408401356130bb81612902565b809150509250925092565b6000806000606084860312156130db57600080fd5b83356130e681612902565b925060208401356130f681612902565b929592945050506040919091013590565b634e487b7160e01b600052601160045260246000fd5b600060001982141561313157613131613107565b5060010190565b60408152600061314b6040830185612b04565b8281036020840152610e848185612b04565b60006020828403121561316f57600080fd5b81517fffffffff0000000000000000000000000000000000000000000000000000000081168114611eb557600080fd5b600060ff821660ff8416808210156131b9576131b9613107565b90039392505050565b634e487b7160e01b600052602160045260246000fd5b600281106131f657634e487b7160e01b600052602160045260246000fd5b9052565b60006001600160a01b03808816835280871660208401525084604083015260a0606083015261322c60a0830185612b04565b905061323b60808301846131d8565b9695505050505050565b600081600019048311821515161561325f5761325f613107565b500290565b81835281816020850137506000828201602090810191909152601f909101601f19169091010190565b60006001600160a01b03808f1683528d602084015261016060408401526132b961016084018d8f613264565b6132c6606085018d6131d8565b8a60808501528960a08501528860c085015281881660e08501528187166101008501528381036101208501526132fc8187612b04565b9150508281036101408401526133128185612b04565b9f9e505050505050505050505050505050565b634e487b7160e01b600052603260045260246000fd5b6080808252810185905260008660a08301825b8881101561337e57823561336181612902565b6001600160a01b031682526020928301929091019060010161334e565b50602084019690965250506001600160a01b039283166040820152911660609091015292915050565b6000828210156133b9576133b9613107565b500390565b8183823760009101908152919050565b6000610160820190508c82526001600160a01b03808d1660208401528b60408401528a6060840152613403608084018b6131d8565b60a083019890985260c082019690965260e0810194909452918516610100840152909316610120820152610140019190915295945050505050565b60008161344d5761344d613107565b506000190190565b60008261347257634e487b7160e01b600052601260045260246000fd5b500490565b6000821982111561348a5761348a613107565b500190565b60006001600160a01b03808f1683528d602084015261016060408401526134bb61016084018d8f613264565b6134c8606085018d6131d8565b8a60808501528960a08501528860c085015281881660e08501528187166101008501528381036101208501526134fe8187612b04565b925050808416610140840152509d9c5050505050505050505050505056fea164736f6c634300080a000a",
  "devdoc": {
    "author": "Stefan George - <stefan@gnosis.io>Richard Meissner - <richard@gnosis.io>",
    "kind": "dev",
    "methods": {
      "addOwnerWithThreshold(address,uint256)": {
        "details": "Allows to add a new owner to the Safe and update the threshold at the same time.      This can only be done via a Safe transaction.",
        "params": {
          "_threshold": "New threshold.",
          "owner": "New owner address."
        }
      },
      "approveHash(bytes32)": {
        "details": "Marks a hash as approved. This can be used to validate a hash that is used by a signature.",
        "params": {
          "hashToApprove": "The hash that should be marked as approved for signatures that are verified by this contract."
        }
      },
      "changeThreshold(uint256)": {
        "details": "Allows to update the number of required confirmations by Safe owners.      This can only be done via a Safe transaction.",
        "params": {
          "_threshold": "New threshold."
        }
      },
      "checkNSignatures(bytes32,bytes,bytes,uint256)": {
        "details": "Checks whether the signature provided is valid for the provided data, hash. Will revert otherwise.",
        "params": {
          "data": "That should be signed (this is passed to an external validator contract)",
          "dataHash": "Hash of the data (could be either a message hash or transaction hash)",
          "requiredSignatures": "Amount of required valid signatures.",
          "signatures": "Signature data that should be verified. Can be ECDSA signature, contract signature (EIP-1271) or approved hash."
        }
      },
      "checkSignatures(bytes32,bytes,bytes)": {
        "details": "Checks whether the signature provided is valid for the provided data, hash. Will revert otherwise.",
        "params": {
          "data": "That should be signed (this is passed to an external validator contract)",
          "dataHash": "Hash of the data (could be either a message hash or transaction hash)",
          "signatures": "Signature data that should be verified. Can be ECDSA signature, contract signature (EIP-1271) or approved hash."
        }
      },
      "disableModule(address,address)": {
        "details": "Allows to remove a module from the whitelist.      This can only be done via a Safe transaction.",
        "params": {
          "module": "Module to be removed.",
          "prevModule": "Module that pointed to the module to be removed in the linked list"
        }
      },
      "enableModule(address)": {
        "details": "Allows to add a module to the whitelist.      This can only be done via a Safe transaction.",
        "params": {
          "module": "Module to be whitelisted."
        }
      },
      "encodeTransactionData(address,uint256,bytes,uint8,uint256,uint256,uint256,address,address,uint256)": {
        "details": "Returns the bytes that are hashed to be signed by owners.",
        "params": {
          "_nonce": "Transaction nonce.",
          "baseGas": "Gas costs for that are independent of the transaction execution(e.g. base transaction fee, signature check, payment of the refund)",
          "data": "Data payload.",
          "gasPrice": "Maximum gas price that should be used for this transaction.",
          "gasToken": "Token address (or 0 if ETH) that is used for the payment.",
          "operation": "Operation type.",
          "refundReceiver": "Address of receiver of gas payment (or 0 if tx.origin).",
          "safeTxGas": "Gas that should be used for the safe transaction.",
          "to": "Destination address.",
          "value": "Ether value."
        },
        "returns": {
          "_0": "Transaction hash bytes."
        }
      },
      "execTransaction(address,uint256,bytes,uint8,uint256,uint256,uint256,address,address,bytes)": {
        "details": "Allows to execute a Safe transaction confirmed by required number of owners and then pays the account that submitted the transaction.      Note: The fees are always transferred, even if the user transaction fails.",
        "params": {
          "baseGas": "Gas costs that are independent of the transaction execution(e.g. base transaction fee, signature check, payment of the refund)",
          "data": "Data payload of Safe transaction.",
          "gasPrice": "Gas price that should be used for the payment calculation.",
          "gasToken": "Token address (or 0 if ETH) that is used for the payment.",
          "operation": "Operation type of Safe transaction.",
          "refundReceiver": "Address of receiver of gas payment (or 0 if tx.origin).",
          "safeTxGas": "Gas that should be used for the Safe transaction.",
          "signatures": "Packed signature data ({bytes32 r}{bytes32 s}{uint8 v})",
          "to": "Destination address of Safe transaction.",
          "value": "Ether value of Safe transaction."
        }
      },
      "execTransactionFromModule(address,uint256,bytes,uint8)": {
        "details": "Allows a Module to execute a Safe transaction without any further confirmations.",
        "params": {
          "data": "Data payload of module transaction.",
          "operation": "Operation type of module transaction.",
          "to": "Destination address of module transaction.",
          "value": "Ether value of module transaction."
        }
      },
      "execTransactionFromModuleReturnData(address,uint256,bytes,uint8)": {
        "details": "Allows a Module to execute a Safe transaction without any further confirmations and return data",
        "params": {
          "data": "Data payload of module transaction.",
          "operation": "Operation type of module transaction.",
          "to": "Destination address of module transaction.",
          "value": "Ether value of module transaction."
        }
      },
      "getChainId()": {
        "details": "Returns the chain id used by this contract."
      },
      "getModulesPaginated(address,uint256)": {
        "details": "Returns array of modules.",
        "params": {
          "pageSize": "Maximum number of modules that should be returned.",
          "start": "Start of the page."
        },
        "returns": {
          "array": "Array of modules.",
          "next": "Start of the next page."
        }
      },
      "getOwners()": {
        "details": "Returns array of owners.",
        "returns": {
          "_0": "Array of Safe owners."
        }
      },
      "getStorageAt(uint256,uint256)": {
        "details": "Reads `length` bytes of storage in the currents contract",
        "params": {
          "length": "- the number of words (32 bytes) of data to read",
          "offset": "- the offset in the current contract's storage in words to start reading from"
        },
        "returns": {
          "_0": "the bytes that were read."
        }
      },
      "getTransactionHash(address,uint256,bytes,uint8,uint256,uint256,uint256,address,address,uint256)": {
        "details": "Returns hash to be signed by owners.",
        "params": {
          "_nonce": "Transaction nonce.",
          "baseGas": "Gas costs for data used to trigger the safe transaction.",
          "data": "Data payload.",
          "gasPrice": "Maximum gas price that should be used for this transaction.",
          "gasToken": "Token address (or 0 if ETH) that is used for the payment.",
          "operation": "Operation type.",
          "refundReceiver": "Address of receiver of gas payment (or 0 if tx.origin).",
          "safeTxGas": "Fas that should be used for the safe transaction.",
          "to": "Destination address.",
          "value": "Ether value."
        },
        "returns": {
          "_0": "Transaction hash."
        }
      },
      "isModuleEnabled(address)": {
        "details": "Returns if an module is enabled",
        "returns": {
          "_0": "True if the module is enabled"
        }
      },
      "removeOwner(address,address,uint256)": {
        "details": "Allows to remove an owner from the Safe and update the threshold at the same time.      This can only be done via a Safe transaction.",
        "params": {
          "_threshold": "New threshold.",
          "owner": "Owner address to be removed.",
          "prevOwner": "Owner that pointed to the owner to be removed in the linked list"
        }
      },
      "requiredTxGas(address,uint256,bytes,uint8)": {
        "details": "Allows to estimate a Safe transaction.      This method is only meant for estimation purpose, therefore the call will always revert and encode the result in the revert data.      Since the `estimateGas` function includes refunds, call this method to get an estimated of the costs that are deducted from the safe with `execTransaction`",
        "params": {
          "data": "Data payload of Safe transaction.",
          "operation": "Operation type of Safe transaction.",
          "to": "Destination address of Safe transaction.",
          "value": "Ether value of Safe transaction."
        },
        "returns": {
          "_0": "Estimate without refunds and overhead fees (base transaction and payload data gas costs)."
        }
      },
      "setFallbackHandler(address)": {
        "details": "Allows to add a contract to handle fallback calls.      Only fallback calls without value and with data will be forwarded.      This can only be done via a Safe transaction.",
        "params": {
          "handler": "contract to handle fallbacks calls."
        }
      },
      "setGuard(address)": {
        "details": "Set a guard that checks transactions before execution",
        "params": {
          "guard": "The address of the guard to be used or the 0 address to disable the guard"
        }
      },
      "setup(address[],uint256,address,bytes,address,address,uint256,address)": {
        "details": "Setup function sets initial storage of contract.",
        "params": {
          "_owners": "List of Safe owners.",
          "_threshold": "Number of required confirmations for a Safe transaction.",
          "data": "Data payload for optional delegate call.",
          "fallbackHandler": "Handler for fallback calls to this contract",
          "payment": "Value that should be paid",
          "paymentReceiver": "Adddress that should receive the payment (or 0 if tx.origin)",
          "paymentToken": "Token that should be used for the payment (0 is ETH)",
          "to": "Contract address for optional delegate call."
        }
      },
      "simulateAndRevert(address,bytes)": {
        "details": "Performs a delegetecall on a targetContract in the context of self. Internally reverts execution to avoid side effects (making it static). This method reverts with data equal to `abi.encode(bool(success), bytes(response))`. Specifically, the `returndata` after a call to this method will be: `success:bool || response.length:uint256 || response:bytes`.",
        "params": {
          "calldataPayload": "Calldata that should be sent to the target contract (encoded method name and arguments).",
          "targetContract": "Address of the contract containing the code to execute."
        }
      },
      "swapOwner(address,address,address)": {
        "details": "Allows to swap/replace an owner from the Safe with another address.      This can only be done via a Safe transaction.",
        "params": {
          "newOwner": "New owner address.",
          "oldOwner": "Owner address to be replaced.",
          "prevOwner": "Owner that pointed to the owner to be replaced in the linked list"
        }
      }
    },
    "title": "Gnosis Safe - A multisignature wallet with support for confirmations using signed messages based on ERC191.",
    "version": 1
  },
  "userdoc": {
    "kind": "user",
    "methods": {
      "addOwnerWithThreshold(address,uint256)": {
        "notice": "Adds the owner `owner` to the Safe and updates the threshold to `_threshold`."
      },
      "changeThreshold(uint256)": {
        "notice": "Changes the threshold of the Safe to `_threshold`."
      },
      "disableModule(address,address)": {
        "notice": "Disables the module `module` for the Safe."
      },
      "enableModule(address)": {
        "notice": "Enables the module `module` for the Safe."
      },
      "removeOwner(address,address,uint256)": {
        "notice": "Removes the owner `owner` from the Safe and updates the threshold to `_threshold`."
      },
      "requiredTxGas(address,uint256,bytes,uint8)": {
        "notice": "Deprecated in favor of common/StorageAccessible.sol and will be removed in next version."
      },
      "swapOwner(address,address,address)": {
        "notice": "Replaces the owner `oldOwner` in the Safe with `newOwner`."
      }
    },
    "version": 1
  },
  "storageLayout": {
    "storage": [
      {
        "astId": 2250,
        "contract": "@gnosis.pm/safe-contracts/contracts/GnosisSafeL2.sol:GnosisSafeL2",
        "label": "singleton",
        "offset": 0,
        "slot": "0",
        "type": "t_address"
      },
      {
        "astId": 1301,
        "contract": "@gnosis.pm/safe-contracts/contracts/GnosisSafeL2.sol:GnosisSafeL2",
        "label": "modules",
        "offset": 0,
        "slot": "1",
        "type": "t_mapping(t_address,t_address)"
      },
      {
        "astId": 1660,
        "contract": "@gnosis.pm/safe-contracts/contracts/GnosisSafeL2.sol:GnosisSafeL2",
        "label": "owners",
        "offset": 0,
        "slot": "2",
        "type": "t_mapping(t_address,t_address)"
      },
      {
        "astId": 1662,
        "contract": "@gnosis.pm/safe-contracts/contracts/GnosisSafeL2.sol:GnosisSafeL2",
        "label": "ownerCount",
        "offset": 0,
        "slot": "3",
        "type": "t_uint256"
      },
      {
        "astId": 1664,
        "contract": "@gnosis.pm/safe-contracts/contracts/GnosisSafeL2.sol:GnosisSafeL2",
        "label": "threshold",
        "offset": 0,
        "slot": "4",
        "type": "t_uint256"
      },
      {
        "astId": 82,
        "contract": "@gnosis.pm/safe-contracts/contracts/GnosisSafeL2.sol:GnosisSafeL2",
        "label": "nonce",
        "offset": 0,
        "slot": "5",
        "type": "t_uint256"
      },
      {
        "astId": 84,
        "contract": "@gnosis.pm/safe-contracts/contracts/GnosisSafeL2.sol:GnosisSafeL2",
        "label": "_deprecatedDomainSeparator",
        "offset": 0,
        "slot": "6",
        "type": "t_bytes32"
      },
      {
        "astId": 88,
        "contract": "@gnosis.pm/safe-contracts/contracts/GnosisSafeL2.sol:GnosisSafeL2",
        "label": "signedMessages",
        "offset": 0,
        "slot": "7",
        "type": "t_mapping(t_bytes32,t_uint256)"
      },
      {
        "astId": 94,
        "contract": "@gnosis.pm/safe-contracts/contracts/GnosisSafeL2.sol:GnosisSafeL2",
        "label": "approvedHashes",
        "offset": 0,
        "slot": "8",
        "type": "t_mapping(t_address,t_mapping(t_bytes32,t_uint256))"
      }
    ],
    "types": {
      "t_address": {
        "encoding": "inplace",
        "label": "address",
        "numberOfBytes": "20"
      },
      "t_bytes32": {
        "encoding": "inplace",
        "label": "bytes32",
        "numberOfBytes": "32"
      },
      "t_mapping(t_address,t_address)": {
        "encoding": "mapping",
        "key": "t_address",
        "label": "mapping(address => address)",
        "numberOfBytes": "32",
        "value": "t_address"
      },
      "t_mapping(t_address,t_mapping(t_bytes32,t_uint256))": {
        "encoding": "mapping",
        "key": "t_address",
        "label": "mapping(address => mapping(bytes32 => uint256))",
        "numberOfBytes": "32",
        "value": "t_mapping(t_bytes32,t_uint256)"
      },
      "t_mapping(t_bytes32,t_uint256)": {
        "encoding": "mapping",
        "key": "t_bytes32",
        "label": "mapping(bytes32 => uint256)",
        "numberOfBytes": "32",
        "value": "t_uint256"
      },
      "t_uint256": {
        "encoding": "inplace",
        "label": "uint256",
        "numberOfBytes": "32"
      }
    }
  }
}