{
  "address": "0x0F7c73eDF478BEf4A960fCc5BBAA812f2EaEEdF5",
  "abi": [
    {
      "inputs": [
        {
          "internalType": "address",
          "name": "_treasury",
          "type": "address"
        },
        {
          "internalType": "address",
          "name": "_ohm",
          "type": "address"
        },
        {
          "internalType": "address",
          "name": "_sOHM",
          "type": "address"
        },
        {
          "internalType": "address",
          "name": "_staking",
          "type": "address"
        },
        {
          "internalType": "address",
          "name": "_authority",
          "type": "address"
        }
      ],
      "stateMutability": "nonpayable",
      "type": "constructor"
    },
    {
      "anonymous": false,
      "inputs": [
        {
          "indexed": true,
          "internalType": "contract IOlympusAuthority",
          "name": "authority",
          "type": "address"
        }
      ],
      "name": "AuthorityUpdated",
      "type": "event"
    },
    {
      "inputs": [
        {
          "internalType": "address",
          "name": "_recipient",
          "type": "address"
        },
        {
          "internalType": "uint256",
          "name": "_rewardRate",
          "type": "uint256"
        }
      ],
      "name": "addRecipient",
      "outputs": [],
      "stateMutability": "nonpayable",
      "type": "function"
    },
    {
      "inputs": [
        {
          "internalType": "uint256",
          "name": "",
          "type": "uint256"
        }
      ],
      "name": "adjustments",
      "outputs": [
        {
          "internalType": "bool",
          "name": "add",
          "type": "bool"
        },
        {
          "internalType": "uint256",
          "name": "rate",
          "type": "uint256"
        },
        {
          "internalType": "uint256",
          "name": "target",
          "type": "uint256"
        }
      ],
      "stateMutability": "view",
      "type": "function"
    },
    {
      "inputs": [],
      "name": "authority",
      "outputs": [
        {
          "internalType": "contract IOlympusAuthority",
          "name": "",
          "type": "address"
        }
      ],
      "stateMutability": "view",
      "type": "function"
    },
    {
      "inputs": [],
      "name": "bounty",
      "outputs": [
        {
          "internalType": "uint256",
          "name": "",
          "type": "uint256"
        }
      ],
      "stateMutability": "view",
      "type": "function"
    },
    {
      "inputs": [],
      "name": "distribute",
      "outputs": [],
      "stateMutability": "nonpayable",
      "type": "function"
    },
    {
      "inputs": [
        {
          "internalType": "uint256",
          "name": "",
          "type": "uint256"
        }
      ],
      "name": "info",
      "outputs": [
        {
          "internalType": "uint256",
          "name": "rate",
          "type": "uint256"
        },
        {
          "internalType": "address",
          "name": "recipient",
          "type": "address"
        }
      ],
      "stateMutability": "view",
      "type": "function"
    },
    {
      "inputs": [
        {
          "internalType": "uint256",
          "name": "_rate",
          "type": "uint256"
        }
      ],
      "name": "nextRewardAt",
      "outputs": [
        {
          "internalType": "uint256",
          "name": "",
          "type": "uint256"
        }
      ],
      "stateMutability": "view",
      "type": "function"
    },
    {
      "inputs": [],
      "name": "nextRewardDenom",
      "outputs": [
        {
          "internalType": "uint256",
          "name": "",
          "type": "uint256"
        }
      ],
      "stateMutability": "view",
      "type": "function"
    },
    {
      "inputs": [],
      "name": "nextRewardDenomWith18",
      "outputs": [
        {
          "internalType": "uint256",
          "name": "",
          "type": "uint256"
        }
      ],
      "stateMutability": "view",
      "type": "function"
    },
    {
      "inputs": [
        {
          "internalType": "address",
          "name": "_recipient",
          "type": "address"
        }
      ],
      "name": "nextRewardFor",
      "outputs": [
        {
          "internalType": "uint256",
          "name": "",
          "type": "uint256"
        }
      ],
      "stateMutability": "view",
      "type": "function"
    },
    {
      "inputs": [
        {
          "internalType": "uint256",
          "name": "_index",
          "type": "uint256"
        }
      ],
      "name": "removeRecipient",
      "outputs": [],
      "stateMutability": "nonpayable",
      "type": "function"
    },
    {
      "inputs": [],
      "name": "retrieveBounty",
      "outputs": [
        {
          "internalType": "uint256",
          "name": "",
          "type": "uint256"
        }
      ],
      "stateMutability": "nonpayable",
      "type": "function"
    },
    {
      "inputs": [],
      "name": "sOHM",
      "outputs": [
        {
          "internalType": "contract IOpenSOHM",
          "name": "",
          "type": "address"
        }
      ],
      "stateMutability": "view",
      "type": "function"
    },
    {
      "inputs": [
        {
          "internalType": "uint256",
          "name": "_index",
          "type": "uint256"
        },
        {
          "internalType": "bool",
          "name": "_add",
          "type": "bool"
        },
        {
          "internalType": "uint256",
          "name": "_rate",
          "type": "uint256"
        },
        {
          "internalType": "uint256",
          "name": "_target",
          "type": "uint256"
        }
      ],
      "name": "setAdjustment",
      "outputs": [],
      "stateMutability": "nonpayable",
      "type": "function"
    },
    {
      "inputs": [
        {
          "internalType": "contract IOlympusAuthority",
          "name": "_newAuthority",
          "type": "address"
        }
      ],
      "name": "setAuthority",
      "outputs": [],
      "stateMutability": "nonpayable",
      "type": "function"
    },
    {
      "inputs": [
        {
          "internalType": "uint256",
          "name": "_bounty",
          "type": "uint256"
        }
      ],
      "name": "setBounty",
      "outputs": [],
      "stateMutability": "nonpayable",
      "type": "function"
    },
    {
      "inputs": [
        {
          "internalType": "uint256",
          "name": "_x",
          "type": "uint256"
        }
      ],
      "name": "sqrt",
      "outputs": [
        {
          "internalType": "uint256",
          "name": "",
          "type": "uint256"
        }
      ],
      "stateMutability": "pure",
      "type": "function"
    },
    {
      "inputs": [
        {
          "internalType": "uint256",
          "name": "_x",
          "type": "uint256"
        },
        {
          "internalType": "uint256",
          "name": "_y",
          "type": "uint256"
        }
      ],
      "name": "sqrtFraction",
      "outputs": [
        {
          "internalType": "uint256",
          "name": "",
          "type": "uint256"
        }
      ],
      "stateMutability": "pure",
      "type": "function"
    },
    {
      "inputs": [
        {
          "internalType": "uint256",
          "name": "_x",
          "type": "uint256"
        },
        {
          "internalType": "uint256",
          "name": "_y",
          "type": "uint256"
        }
      ],
      "name": "sqrtFractionWith18",
      "outputs": [
        {
          "internalType": "uint256",
          "name": "",
          "type": "uint256"
        }
      ],
      "stateMutability": "pure",
      "type": "function"
    }
  ],
  "transactionHash": "0x209fbbc76b6f1a9d9eded53cac1f85cd0316e2016618195975f5d9b4221684fb",
  "args": [
    "0xe5891426d241A99609EEaCa47337218Ed1E3b533",
    "0x7B2372f4E55428C9F5026a037Daec2D1a5C44A23",
    "0x4512690B95C4582960a41495c1c1d940A3C8293a",
    "0x7466cC239B96aCB3Dc67b8421A4BE06EBcb46AeD",
    "0x44ccdccfa48621747E244eA58c350607cb75F33E"
  ],
  "solcInputHash": "6ff10e60a3cb861c14ecadba16b3088e",
  "bytecode": "0x610140604052600c6101008190526b15539055551213d49256915160a21b6101209081526200003291600091906200027a565b503480156200004057600080fd5b50604051620024953803806200249583398101604081905262000063916200033d565b600180546001600160a01b0319166001600160a01b0383169081179091556040518291907f2f658b440c35314f52658ea8a740e05b284cdc84dc9ae01e891f21b8933e7cad90600090a2506001600160a01b0385166200010a5760405162461bcd60e51b815260206004820152601660248201527f5a65726f20616464726573733a2054726561737572790000000000000000000060448201526064015b60405180910390fd5b6001600160a01b0380861660c05284166200015c5760405162461bcd60e51b81526020600482015260116024820152705a65726f20616464726573733a204f484d60781b604482015260640162000101565b6001600160a01b038085166080528316620001af5760405162461bcd60e51b81526020600482015260126024820152715a65726f20616464726573733a20734f484d60701b604482015260640162000101565b6001600160a01b0380841660a05282166200020d5760405162461bcd60e51b815260206004820152601560248201527f5a65726f20616464726573733a205374616b696e670000000000000000000000604482015260640162000101565b6001600160a01b03821660e052620002296305f5e10062000234565b5050505050620003ea565b6377359400811115620002755760405162461bcd60e51b81526020600482015260086024820152670a8dede40daeac6d60c31b604482015260640162000101565b600355565b8280546200028890620003ad565b90600052602060002090601f016020900481019282620002ac5760008555620002f7565b82601f10620002c757805160ff1916838001178555620002f7565b82800160010185558215620002f7579182015b82811115620002f7578251825591602001919060010190620002da565b506200030592915062000309565b5090565b5b808211156200030557600081556001016200030a565b80516001600160a01b03811681146200033857600080fd5b919050565b600080600080600060a086880312156200035657600080fd5b620003618662000320565b9450620003716020870162000320565b9350620003816040870162000320565b9250620003916060870162000320565b9150620003a16080870162000320565b90509295509295909350565b600181811c90821680620003c257607f821691505b60208210811415620003e457634e487b7160e01b600052602260045260246000fd5b50919050565b60805160a05160c05160e0516120556200044060003960008181610dec01528181610f9d0152611048015260008181610e84015261101b015260008181610181015261091801526000610d5b01526120556000f3fe608060405234801561001057600080fd5b50600436106101515760003560e01c8063677342ce116100cd578063bf7e214f11610081578063e4fc6b6d11610066578063e4fc6b6d14610302578063e7187e8a1461030a578063f79822431461031257600080fd5b8063bf7e214f146102dc578063c9fa8b2a146102ef57600080fd5b80638e69e255116100b25780638e69e2551461026f578063943dfef114610282578063bc3b2b121461028b57600080fd5b8063677342ce146102495780637a9e5e4b1461025c57600080fd5b80632e340599116101245780635d87d363116101095780635d87d363146102195780635db854b01461022e5780635e0b81b31461024157600080fd5b80632e340599146101d657806336d33f441461020657600080fd5b806309f3cd0914610156578063150799251461017c5780631626dbcc146101bb57806322736135146101ce575b600080fd5b610169610164366004611d44565b610325565b6040519081526020015b60405180910390f35b6101a37f000000000000000000000000000000000000000000000000000000000000000081565b6040516001600160a01b039091168152602001610173565b6101696101c9366004611d44565b61034c565b610169610368565b6101e96101e4366004611d66565b610383565b604080519283526001600160a01b03909116602083015201610173565b610169610214366004611d94565b6103ba565b61022c610227366004611d66565b61045d565b005b61022c61023c366004611db1565b61051e565b610169610913565b610169610257366004611d66565b6109b7565b61022c61026a366004611d94565b6109c2565b61022c61027d366004611d66565b610ac5565b61016960035481565b6102bf610299366004611d66565b600260208190526000918252604090912080546001820154919092015460ff9092169183565b604080519315158452602084019290925290820152606001610173565b6001546101a3906001600160a01b031681565b6101696102fd366004611d66565b610d35565b61022c610de1565b610169610f90565b61022c610320366004611df3565b6110be565b6000610343670de0b6b3a764000061033d858561034c565b90611178565b90505b92915050565b600061034361036361035e8585611184565b6112e1565b6113de565b600061037e670de0b6b3a764000061033d610913565b905090565b6004818154811061039357600080fd5b6000918252602090912060029091020180546001909101549091506001600160a01b031682565b60008060005b60045481101561045657836001600160a01b0316600482815481106103e7576103e7611e1f565b60009182526020909120600160029092020101546001600160a01b031614156104445761044161043a6004838154811061042357610423611e1f565b906000526020600020906002020160000154610d35565b83906113fe565b91505b8061044e81611e4b565b9150506103c0565b5092915050565b600160009054906101000a90046001600160a01b03166001600160a01b0316630c340a246040518163ffffffff1660e01b8152600401602060405180830381865afa1580156104b0573d6000803e3d6000fd5b505050506040513d601f19601f820116820180604052508101906104d49190611e66565b6001600160a01b0316336001600160a01b0316146000906105115760405162461bcd60e51b81526004016105089190611e83565b60405180910390fd5b5061051b8161140a565b50565b600160009054906101000a90046001600160a01b03166001600160a01b0316630c340a246040518163ffffffff1660e01b8152600401602060405180830381865afa158015610571573d6000803e3d6000fd5b505050506040513d601f19601f820116820180604052508101906105959190611e66565b6001600160a01b0316336001600160a01b0316148061063b5750600160009054906101000a90046001600160a01b03166001600160a01b031663452a93206040518163ffffffff1660e01b8152600401602060405180830381865afa158015610602573d6000803e3d6000fd5b505050506040513d601f19601f820116820180604052508101906106269190611e66565b6001600160a01b0316336001600160a01b0316145b6106925760405162461bcd60e51b815260206004820152602260248201527f43616c6c6572206973206e6f7420676f7665726e6f72206f722067756172646960448201526130b760f11b6064820152608401610508565b60006001600160a01b0316600485815481106106b0576106b0611e1f565b60009182526020909120600160029092020101546001600160a01b0316141561071b5760405162461bcd60e51b815260206004820152601860248201527f526563697069656e7420646f6573206e6f7420657869737400000000000000006044820152606401610508565b600160009054906101000a90046001600160a01b03166001600160a01b031663452a93206040518163ffffffff1660e01b8152600401602060405180830381865afa15801561076e573d6000803e3d6000fd5b505050506040513d601f19601f820116820180604052508101906107929190611e66565b6001600160a01b0316336001600160a01b0316141561082f576107e06103e861033d6019600488815481106107c9576107c9611e1f565b600091825260209091206002909102015490611463565b82111561082f5760405162461bcd60e51b815260206004820152601f60248201527f4c696d697465723a2063616e6e6f742061646a757374206279203e322e3525006044820152606401610508565b826108ce576004848154811061084757610847611e1f565b9060005260206000209060020201600001548211156108ce5760405162461bcd60e51b815260206004820152602f60248201527f43616e6e6f742064656372656173652072617465206279206d6f72652074686160448201527f6e20697420616c726561647920697300000000000000000000000000000000006064820152608401610508565b6040805160608101825293151584526020808501938452848201928352600095865260029081905294209251835460ff19169015151783559051600183015551910155565b6000807f00000000000000000000000000000000000000000000000000000000000000006001600160a01b0316639358928b6040518163ffffffff1660e01b8152600401602060405180830381865afa158015610974573d6000803e3d6000fd5b505050506040513d601f19601f820116820180604052508101906109989190611f2b565b90506109b161036361035e8366038d7ea4c68000611184565b91505090565b60006103468261146f565b600160009054906101000a90046001600160a01b03166001600160a01b0316630c340a246040518163ffffffff1660e01b8152600401602060405180830381865afa158015610a15573d6000803e3d6000fd5b505050506040513d601f19601f82011682018060405250810190610a399190611e66565b6001600160a01b0316336001600160a01b031614600090610a6d5760405162461bcd60e51b81526004016105089190611e83565b506001805473ffffffffffffffffffffffffffffffffffffffff19166001600160a01b0383169081179091556040517f2f658b440c35314f52658ea8a740e05b284cdc84dc9ae01e891f21b8933e7cad90600090a250565b600160009054906101000a90046001600160a01b03166001600160a01b0316630c340a246040518163ffffffff1660e01b8152600401602060405180830381865afa158015610b18573d6000803e3d6000fd5b505050506040513d601f19601f82011682018060405250810190610b3c9190611e66565b6001600160a01b0316336001600160a01b03161480610be25750600160009054906101000a90046001600160a01b03166001600160a01b031663452a93206040518163ffffffff1660e01b8152600401602060405180830381865afa158015610ba9573d6000803e3d6000fd5b505050506040513d601f19601f82011682018060405250810190610bcd9190611e66565b6001600160a01b0316336001600160a01b0316145b610c395760405162461bcd60e51b815260206004820152602260248201527f43616c6c6572206973206e6f7420676f7665726e6f72206f722067756172646960448201526130b760f11b6064820152608401610508565b60006001600160a01b031660048281548110610c5757610c57611e1f565b60009182526020909120600160029092020101546001600160a01b03161415610cc25760405162461bcd60e51b815260206004820152601860248201527f526563697069656e7420646f6573206e6f7420657869737400000000000000006044820152606401610508565b600060048281548110610cd757610cd7611e1f565b906000526020600020906002020160010160006101000a8154816001600160a01b0302191690836001600160a01b03160217905550600060048281548110610d2157610d21611e1f565b600091825260209091206002909102015550565b6000610346610d42610913565b61033d670de0b6b3a7640000610ddb620f424061033d887f00000000000000000000000000000000000000000000000000000000000000006001600160a01b03166318160ddd6040518163ffffffff1660e01b8152600401602060405180830381865afa158015610db7573d6000803e3d6000fd5b505050506040513d601f19601f82011682018060405250810190610ddb9190611f2b565b90611463565b336001600160a01b037f00000000000000000000000000000000000000000000000000000000000000001614610e485760405162461bcd60e51b815260206004820152600c60248201526b4f6e6c79207374616b696e6760a01b6044820152606401610508565b60005b60045481101561051b57600060048281548110610e6a57610e6a611e1f565b9060005260206000209060020201600001541115610f7e577f00000000000000000000000000000000000000000000000000000000000000006001600160a01b03166340c10f1960048381548110610ec457610ec4611e1f565b906000526020600020906002020160010160009054906101000a90046001600160a01b0316610eff6004858154811061042357610423611e1f565b6040517fffffffff0000000000000000000000000000000000000000000000000000000060e085901b1681526001600160a01b0390921660048301526024820152604401600060405180830381600087803b158015610f5d57600080fd5b505af1158015610f71573d6000803e3d6000fd5b50505050610f7e816115ed565b80610f8881611e4b565b915050610e4b565b6000336001600160a01b037f00000000000000000000000000000000000000000000000000000000000000001614610ff95760405162461bcd60e51b815260206004820152600c60248201526b4f6e6c79207374616b696e6760a01b6044820152606401610508565b600354156110b7576003546040516340c10f1960e01b81526001600160a01b037f000000000000000000000000000000000000000000000000000000000000000016916340c10f1991611084917f0000000000000000000000000000000000000000000000000000000000000000916004016001600160a01b03929092168252602082015260400190565b600060405180830381600087803b15801561109e57600080fd5b505af11580156110b2573d6000803e3d6000fd5b505050505b5060035490565b600160009054906101000a90046001600160a01b03166001600160a01b0316630c340a246040518163ffffffff1660e01b8152600401602060405180830381865afa158015611111573d6000803e3d6000fd5b505050506040513d601f19601f820116820180604052508101906111359190611e66565b6001600160a01b0316336001600160a01b0316146000906111695760405162461bcd60e51b81526004016105089190611e83565b506111748282611808565b5050565b60006103438284611f5a565b604080516020810190915260008152600082116112095760405162461bcd60e51b815260206004820152602660248201527f4669786564506f696e743a3a6672616374696f6e3a206469766973696f6e206260448201527f79207a65726f00000000000000000000000000000000000000000000000000006064820152608401610508565b826112235750604080516020810190915260008152610346565b71ffffffffffffffffffffffffffffffffffff83116112c557600061124c83607086901b611f5a565b90506001600160e01b038111156112a55760405162461bcd60e51b815260206004820152601e60248201527f4669786564506f696e743a3a6672616374696f6e3a206f766572666c6f7700006044820152606401610508565b6040518060200160405280826001600160e01b0316815250915050610346565b600061124c846e01000000000000000000000000000085611953565b604080516020810190915260008152815171ffffffffffffffffffffffffffffffffffff6001600160e01b039091161161134b57604051806020016040528061133a607085600001516001600160e01b0316901b61146f565b6001600160e01b0316905292915050565b600061136383600001516001600160e01b0316611a1d565b61136e9060ff611f6e565b905061137b600282611f91565b6113859082611f6e565b9050604051806020016040528060028360706113a19190611f6e565b6113ab9190611fb3565b60ff166113ca8460ff1687600001516001600160e01b0316901b61146f565b6001600160e01b03911b1690529392505050565b8051600090610346906612725dd1d243ab906001600160e01b0316611f5a565b60006103438284611fd5565b637735940081111561145e5760405162461bcd60e51b815260206004820152600860248201527f546f6f206d7563680000000000000000000000000000000000000000000000006044820152606401610508565b600355565b60006103438284611fed565b60008161147e57506000919050565b816001600160801b82106114975760809190911c9060401b5b6801000000000000000082106114b25760409190911c9060201b5b64010000000082106114c95760209190911c9060101b5b6201000082106114de5760109190911c9060081b5b61010082106114f25760089190911c9060041b5b601082106115055760049190911c9060021b5b600882106115115760011b5b600161151d8286611f5a565b6115279083611fd5565b901c905060016115378286611f5a565b6115419083611fd5565b901c905060016115518286611f5a565b61155b9083611fd5565b901c9050600161156b8286611f5a565b6115759083611fd5565b901c905060016115858286611f5a565b61158f9083611fd5565b901c9050600161159f8286611f5a565b6115a99083611fd5565b901c905060016115b98286611f5a565b6115c39083611fd5565b901c905060006115d38286611f5a565b90508082106115e257806115e4565b815b95945050505050565b6000818152600260208181526040928390208351606081018552815460ff16151581526001820154928101839052920154928201929092529015611174578051156116fa5761166481602001516004848154811061164d5761164d611e1f565b6000918252602090912060029091020154906113fe565b6004838154811061167757611677611e1f565b6000918252602090912060029091020155604081015160048054849081106116a1576116a1611e1f565b90600052602060002090600202016000015410611174576000828152600260205260408082206001019190915581015160048054849081106116e5576116e5611e1f565b60009182526020909120600290910201555050565b80602001516004838154811061171257611712611e1f565b90600052602060002090600202016000015411156117855761175c81602001516004848154811061174557611745611e1f565b600091825260209091206002909102015490611b5f565b6004838154811061176f5761176f611e1f565b60009182526020909120600290910201556117ac565b60006004838154811061179a5761179a611e1f565b60009182526020909120600290910201555b8060400151600483815481106117c4576117c4611e1f565b90600052602060002090600202016000015411611174576000828152600260205260408082206001019190915581015160048054849081106116e5576116e5611e1f565b6001600160a01b03821661185e5760405162461bcd60e51b815260206004820152601760248201527f5a65726f20616464726573733a20526563697069656e740000000000000000006044820152606401610508565b620f42408111156118b15760405162461bcd60e51b815260206004820152601e60248201527f526174652063616e6e6f74206578636565642064656e6f6d696e61746f7200006044820152606401610508565b604080518082019091529081526001600160a01b03918216602082019081526004805460018101825560009190915291517f8a35acfbc15ff81a39ae7d344fd709f28e8600b4aa8c65c6b64bfe7fe36bd19b600290930292830155517f8a35acfbc15ff81a39ae7d344fd709f28e8600b4aa8c65c6b64bfe7fe36bd19c909101805473ffffffffffffffffffffffffffffffffffffffff191691909216179055565b60008060006119628686611b6b565b915091506000848061197657611976611f44565b8688099050828111156119915761198e60018361200c565b91505b61199b818461200c565b9250816119b6576119ac8584611f5a565b9350505050611a16565b848210611a055760405162461bcd60e51b815260206004820152601a60248201527f46756c6c4d6174683a2046554c4c4449565f4f564552464c4f570000000000006044820152606401610508565b611a10838387611bad565b93505050505b9392505050565b6000808211611a785760405162461bcd60e51b815260206004820152602160248201527f4269744d6174683a3a6d6f73745369676e69666963616e744269743a207a65726044820152606f60f81b6064820152608401610508565b600160801b8210611a9657608091821c91611a939082612023565b90505b680100000000000000008210611ab957604091821c91611ab69082612023565b90505b6401000000008210611ad857602091821c91611ad59082612023565b90505b620100008210611af557601091821c91611af29082612023565b90505b6101008210611b1157600891821c91611b0e9082612023565b90505b60108210611b2c57600491821c91611b299082612023565b90505b60048210611b4757600291821c91611b449082612023565b90505b60028210611b5a57610346600182612023565b919050565b6000610343828461200c565b600080806000198486099050611b818486611fed565b9250611b8d838261200c565b915082811015611ba557611ba260018361200c565b91505b509250929050565b600080611bbc8360001961200c565b611bc7906001611fd5565b83169050611bd58184611f5a565b9250611be18186611f5a565b945080611bf08160001961200c565b611bfb906001611fd5565b611c059190611f5a565b611c10906001611fd5565b611c1a9085611fed565b611c249086611fd5565b94506001611c328185611fed565b611c3d90600261200c565b611c479082611fed565b9050611c538185611fed565b611c5e90600261200c565b611c689082611fed565b9050611c748185611fed565b611c7f90600261200c565b611c899082611fed565b9050611c958185611fed565b611ca090600261200c565b611caa9082611fed565b9050611cb68185611fed565b611cc190600261200c565b611ccb9082611fed565b9050611cd78185611fed565b611ce290600261200c565b611cec9082611fed565b9050611cf88185611fed565b611d0390600261200c565b611d0d9082611fed565b9050611d198185611fed565b611d2490600261200c565b611d2e9082611fed565b9050611d3a8187611fed565b9695505050505050565b60008060408385031215611d5757600080fd5b50508035926020909101359150565b600060208284031215611d7857600080fd5b5035919050565b6001600160a01b038116811461051b57600080fd5b600060208284031215611da657600080fd5b8135611a1681611d7f565b60008060008060808587031215611dc757600080fd5b8435935060208501358015158114611dde57600080fd5b93969395505050506040820135916060013590565b60008060408385031215611e0657600080fd5b8235611e1181611d7f565b946020939093013593505050565b634e487b7160e01b600052603260045260246000fd5b634e487b7160e01b600052601160045260246000fd5b6000600019821415611e5f57611e5f611e35565b5060010190565b600060208284031215611e7857600080fd5b8151611a1681611d7f565b600060208083526000845481600182811c915080831680611ea557607f831692505b858310811415611ec357634e487b7160e01b85526022600452602485fd5b878601838152602001818015611ee05760018114611ef157611f1c565b60ff19861682528782019650611f1c565b60008b81526020902060005b86811015611f1657815484820152908501908901611efd565b83019750505b50949998505050505050505050565b600060208284031215611f3d57600080fd5b5051919050565b634e487b7160e01b600052601260045260246000fd5b600082611f6957611f69611f44565b500490565b600060ff821660ff841680821015611f8857611f88611e35565b90039392505050565b600060ff831680611fa457611fa4611f44565b8060ff84160691505092915050565b600060ff831680611fc657611fc6611f44565b8060ff84160491505092915050565b60008219821115611fe857611fe8611e35565b500190565b600081600019048311821515161561200757612007611e35565b500290565b60008282101561201e5761201e611e35565b500390565b600060ff821660ff84168060ff0382111561204057612040611e35565b01939250505056fea164736f6c634300080a000a",
  "devdoc": {
    "kind": "dev",
    "methods": {
      "addRecipient(address,uint256)": {
        "params": {
          "_recipient": "address",
          "_rewardRate": "uint"
        }
      },
      "nextRewardAt(uint256)": {
        "params": {
          "_rate": "uint"
        },
        "returns": {
          "_0": "uint"
        }
      },
      "nextRewardDenom()": {
        "returns": {
          "_0": "uint"
        }
      },
      "nextRewardDenomWith18()": {
        "returns": {
          "_0": "uint"
        }
      },
      "nextRewardFor(address)": {
        "params": {
          "_recipient": "address"
        },
        "returns": {
          "_0": "uint"
        }
      },
      "removeRecipient(uint256)": {
        "params": {
          "_index": "uint"
        }
      },
      "setAdjustment(uint256,bool,uint256,uint256)": {
        "params": {
          "_add": "bool",
          "_index": "uint",
          "_rate": "uint",
          "_target": "uint"
        }
      },
      "setBounty(uint256)": {
        "params": {
          "_bounty": "uint256"
        }
      },
      "sqrt(uint256)": {
        "params": {
          "_x": "uint"
        },
        "returns": {
          "_0": "uint"
        }
      },
      "sqrtFraction(uint256,uint256)": {
        "params": {
          "_x": "uint",
          "_y": "uint"
        },
        "returns": {
          "_0": "uint"
        }
      },
      "sqrtFractionWith18(uint256,uint256)": {
        "params": {
          "_x": "uint",
          "_y": "uint"
        },
        "returns": {
          "_0": "uint"
        }
      }
    },
    "version": 1
  },
  "userdoc": {
    "kind": "user",
    "methods": {
      "addRecipient(address,uint256)": {
        "notice": "adds recipient for distributions"
      },
      "distribute()": {
        "notice": "send epoch reward to staking contract"
      },
      "nextRewardAt(uint256)": {
        "notice": "view function for next reward at given rate"
      },
      "nextRewardDenom()": {
        "notice": "for informational purposesview function for next reward's quadratic denominator"
      },
      "nextRewardDenomWith18()": {
        "notice": "view function for next reward's quadratic denominator, with 18 decimals"
      },
      "nextRewardFor(address)": {
        "notice": "view function for next reward for specified address"
      },
      "removeRecipient(uint256)": {
        "notice": "removes recipient for distributions"
      },
      "setAdjustment(uint256,bool,uint256,uint256)": {
        "notice": "set adjustment info for a collector's reward rate"
      },
      "setBounty(uint256)": {
        "notice": "set bounty to incentivize keepers"
      },
      "sqrt(uint256)": {
        "notice": "for informational purposespure function for sqrt"
      },
      "sqrtFraction(uint256,uint256)": {
        "notice": "for informational purposespure function for sqrt of fraction"
      },
      "sqrtFractionWith18(uint256,uint256)": {
        "notice": "for informational purposespure function for sqrt of fraction, with 18 decimals"
      }
    },
    "version": 1
  },
  "storageLayout": {
    "storage": [
      {
        "astId": 20675,
        "contract": "contracts/StakingDistributor.sol:Distributor",
        "label": "UNAUTHORIZED",
        "offset": 0,
        "slot": "0",
        "type": "t_string_storage"
      },
      {
        "astId": 20678,
        "contract": "contracts/StakingDistributor.sol:Distributor",
        "label": "authority",
        "offset": 0,
        "slot": "1",
        "type": "t_contract(IOlympusAuthority)14675"
      },
      {
        "astId": 9456,
        "contract": "contracts/StakingDistributor.sol:Distributor",
        "label": "adjustments",
        "offset": 0,
        "slot": "2",
        "type": "t_mapping(t_uint256,t_struct(Adjust)9478_storage)"
      },
      {
        "astId": 9459,
        "contract": "contracts/StakingDistributor.sol:Distributor",
        "label": "bounty",
        "offset": 0,
        "slot": "3",
        "type": "t_uint256"
      },
      {
        "astId": 9471,
        "contract": "contracts/StakingDistributor.sol:Distributor",
        "label": "info",
        "offset": 0,
        "slot": "4",
        "type": "t_array(t_struct(Info)9467_storage)dyn_storage"
      }
    ],
    "types": {
      "t_address": {
        "encoding": "inplace",
        "label": "address",
        "numberOfBytes": "20"
      },
      "t_array(t_struct(Info)9467_storage)dyn_storage": {
        "base": "t_struct(Info)9467_storage",
        "encoding": "dynamic_array",
        "label": "struct Distributor.Info[]",
        "numberOfBytes": "32"
      },
      "t_bool": {
        "encoding": "inplace",
        "label": "bool",
        "numberOfBytes": "1"
      },
      "t_contract(IOlympusAuthority)14675": {
        "encoding": "inplace",
        "label": "contract IOlympusAuthority",
        "numberOfBytes": "20"
      },
      "t_mapping(t_uint256,t_struct(Adjust)9478_storage)": {
        "encoding": "mapping",
        "key": "t_uint256",
        "label": "mapping(uint256 => struct Distributor.Adjust)",
        "numberOfBytes": "32",
        "value": "t_struct(Adjust)9478_storage"
      },
      "t_string_storage": {
        "encoding": "bytes",
        "label": "string",
        "numberOfBytes": "32"
      },
      "t_struct(Adjust)9478_storage": {
        "encoding": "inplace",
        "label": "struct Distributor.Adjust",
        "members": [
          {
            "astId": 9473,
            "contract": "contracts/StakingDistributor.sol:Distributor",
            "label": "add",
            "offset": 0,
            "slot": "0",
            "type": "t_bool"
          },
          {
            "astId": 9475,
            "contract": "contracts/StakingDistributor.sol:Distributor",
            "label": "rate",
            "offset": 0,
            "slot": "1",
            "type": "t_uint256"
          },
          {
            "astId": 9477,
            "contract": "contracts/StakingDistributor.sol:Distributor",
            "label": "target",
            "offset": 0,
            "slot": "2",
            "type": "t_uint256"
          }
        ],
        "numberOfBytes": "96"
      },
      "t_struct(Info)9467_storage": {
        "encoding": "inplace",
        "label": "struct Distributor.Info",
        "members": [
          {
            "astId": 9464,
            "contract": "contracts/StakingDistributor.sol:Distributor",
            "label": "rate",
            "offset": 0,
            "slot": "0",
            "type": "t_uint256"
          },
          {
            "astId": 9466,
            "contract": "contracts/StakingDistributor.sol:Distributor",
            "label": "recipient",
            "offset": 0,
            "slot": "1",
            "type": "t_address"
          }
        ],
        "numberOfBytes": "64"
      },
      "t_uint256": {
        "encoding": "inplace",
        "label": "uint256",
        "numberOfBytes": "32"
      }
    }
  }
}