{
  "address": "0x7466cC239B96aCB3Dc67b8421A4BE06EBcb46AeD",
  "abi": [
    {
      "inputs": [
        {
          "internalType": "address",
          "name": "_ohm",
          "type": "address"
        },
        {
          "internalType": "address",
          "name": "_sOHM",
          "type": "address"
        },
        {
          "internalType": "address",
          "name": "_gOHM",
          "type": "address"
        },
        {
          "internalType": "uint256",
          "name": "_epochLength",
          "type": "uint256"
        },
        {
          "internalType": "uint256",
          "name": "_firstEpochNumber",
          "type": "uint256"
        },
        {
          "internalType": "uint256",
          "name": "_firstEpochTime",
          "type": "uint256"
        },
        {
          "internalType": "address",
          "name": "_authority",
          "type": "address"
        }
      ],
      "stateMutability": "nonpayable",
      "type": "constructor"
    },
    {
      "anonymous": false,
      "inputs": [
        {
          "indexed": true,
          "internalType": "contract IOlympusAuthority",
          "name": "authority",
          "type": "address"
        }
      ],
      "name": "AuthorityUpdated",
      "type": "event"
    },
    {
      "anonymous": false,
      "inputs": [
        {
          "indexed": false,
          "internalType": "address",
          "name": "distributor",
          "type": "address"
        }
      ],
      "name": "DistributorSet",
      "type": "event"
    },
    {
      "anonymous": false,
      "inputs": [
        {
          "indexed": false,
          "internalType": "uint256",
          "name": "warmup",
          "type": "uint256"
        }
      ],
      "name": "WarmupSet",
      "type": "event"
    },
    {
      "inputs": [],
      "name": "OHM",
      "outputs": [
        {
          "internalType": "contract IERC20",
          "name": "",
          "type": "address"
        }
      ],
      "stateMutability": "view",
      "type": "function"
    },
    {
      "inputs": [],
      "name": "authority",
      "outputs": [
        {
          "internalType": "contract IOlympusAuthority",
          "name": "",
          "type": "address"
        }
      ],
      "stateMutability": "view",
      "type": "function"
    },
    {
      "inputs": [
        {
          "internalType": "address",
          "name": "_to",
          "type": "address"
        },
        {
          "internalType": "bool",
          "name": "_rebasing",
          "type": "bool"
        }
      ],
      "name": "claim",
      "outputs": [
        {
          "internalType": "uint256",
          "name": "",
          "type": "uint256"
        }
      ],
      "stateMutability": "nonpayable",
      "type": "function"
    },
    {
      "inputs": [],
      "name": "distributor",
      "outputs": [
        {
          "internalType": "contract IDistributor",
          "name": "",
          "type": "address"
        }
      ],
      "stateMutability": "view",
      "type": "function"
    },
    {
      "inputs": [],
      "name": "epoch",
      "outputs": [
        {
          "internalType": "uint256",
          "name": "length",
          "type": "uint256"
        },
        {
          "internalType": "uint256",
          "name": "number",
          "type": "uint256"
        },
        {
          "internalType": "uint256",
          "name": "end",
          "type": "uint256"
        },
        {
          "internalType": "uint256",
          "name": "distribute",
          "type": "uint256"
        }
      ],
      "stateMutability": "view",
      "type": "function"
    },
    {
      "inputs": [],
      "name": "forfeit",
      "outputs": [
        {
          "internalType": "uint256",
          "name": "",
          "type": "uint256"
        }
      ],
      "stateMutability": "nonpayable",
      "type": "function"
    },
    {
      "inputs": [],
      "name": "gOHM",
      "outputs": [
        {
          "internalType": "contract IOpenGOHM",
          "name": "",
          "type": "address"
        }
      ],
      "stateMutability": "view",
      "type": "function"
    },
    {
      "inputs": [],
      "name": "index",
      "outputs": [
        {
          "internalType": "uint256",
          "name": "",
          "type": "uint256"
        }
      ],
      "stateMutability": "view",
      "type": "function"
    },
    {
      "inputs": [],
      "name": "rebase",
      "outputs": [
        {
          "internalType": "uint256",
          "name": "",
          "type": "uint256"
        }
      ],
      "stateMutability": "nonpayable",
      "type": "function"
    },
    {
      "inputs": [],
      "name": "sOHM",
      "outputs": [
        {
          "internalType": "contract IOpenSOHM",
          "name": "",
          "type": "address"
        }
      ],
      "stateMutability": "view",
      "type": "function"
    },
    {
      "inputs": [],
      "name": "secondsToNextEpoch",
      "outputs": [
        {
          "internalType": "uint256",
          "name": "",
          "type": "uint256"
        }
      ],
      "stateMutability": "view",
      "type": "function"
    },
    {
      "inputs": [
        {
          "internalType": "contract IOlympusAuthority",
          "name": "_newAuthority",
          "type": "address"
        }
      ],
      "name": "setAuthority",
      "outputs": [],
      "stateMutability": "nonpayable",
      "type": "function"
    },
    {
      "inputs": [
        {
          "internalType": "address",
          "name": "_distributor",
          "type": "address"
        }
      ],
      "name": "setDistributor",
      "outputs": [],
      "stateMutability": "nonpayable",
      "type": "function"
    },
    {
      "inputs": [
        {
          "internalType": "uint256",
          "name": "_warmupPeriod",
          "type": "uint256"
        }
      ],
      "name": "setWarmupLength",
      "outputs": [],
      "stateMutability": "nonpayable",
      "type": "function"
    },
    {
      "inputs": [
        {
          "internalType": "address",
          "name": "_to",
          "type": "address"
        },
        {
          "internalType": "uint256",
          "name": "_amount",
          "type": "uint256"
        },
        {
          "internalType": "bool",
          "name": "_rebasing",
          "type": "bool"
        },
        {
          "internalType": "bool",
          "name": "_claim",
          "type": "bool"
        }
      ],
      "name": "stake",
      "outputs": [
        {
          "internalType": "uint256",
          "name": "",
          "type": "uint256"
        }
      ],
      "stateMutability": "nonpayable",
      "type": "function"
    },
    {
      "inputs": [],
      "name": "supplyInWarmup",
      "outputs": [
        {
          "internalType": "uint256",
          "name": "",
          "type": "uint256"
        }
      ],
      "stateMutability": "view",
      "type": "function"
    },
    {
      "inputs": [],
      "name": "toggleLock",
      "outputs": [],
      "stateMutability": "nonpayable",
      "type": "function"
    },
    {
      "inputs": [
        {
          "internalType": "address",
          "name": "_to",
          "type": "address"
        },
        {
          "internalType": "uint256",
          "name": "_amount",
          "type": "uint256"
        },
        {
          "internalType": "bool",
          "name": "_trigger",
          "type": "bool"
        },
        {
          "internalType": "bool",
          "name": "_rebasing",
          "type": "bool"
        }
      ],
      "name": "unstake",
      "outputs": [
        {
          "internalType": "uint256",
          "name": "amount_",
          "type": "uint256"
        }
      ],
      "stateMutability": "nonpayable",
      "type": "function"
    },
    {
      "inputs": [
        {
          "internalType": "address",
          "name": "_to",
          "type": "address"
        },
        {
          "internalType": "uint256",
          "name": "_amount",
          "type": "uint256"
        }
      ],
      "name": "unwrap",
      "outputs": [
        {
          "internalType": "uint256",
          "name": "sBalance_",
          "type": "uint256"
        }
      ],
      "stateMutability": "nonpayable",
      "type": "function"
    },
    {
      "inputs": [
        {
          "internalType": "address",
          "name": "",
          "type": "address"
        }
      ],
      "name": "warmupInfo",
      "outputs": [
        {
          "internalType": "uint256",
          "name": "deposit",
          "type": "uint256"
        },
        {
          "internalType": "uint256",
          "name": "gons",
          "type": "uint256"
        },
        {
          "internalType": "uint256",
          "name": "expiry",
          "type": "uint256"
        },
        {
          "internalType": "bool",
          "name": "lock",
          "type": "bool"
        }
      ],
      "stateMutability": "view",
      "type": "function"
    },
    {
      "inputs": [],
      "name": "warmupPeriod",
      "outputs": [
        {
          "internalType": "uint256",
          "name": "",
          "type": "uint256"
        }
      ],
      "stateMutability": "view",
      "type": "function"
    },
    {
      "inputs": [
        {
          "internalType": "address",
          "name": "_to",
          "type": "address"
        },
        {
          "internalType": "uint256",
          "name": "_amount",
          "type": "uint256"
        }
      ],
      "name": "wrap",
      "outputs": [
        {
          "internalType": "uint256",
          "name": "gBalance_",
          "type": "uint256"
        }
      ],
      "stateMutability": "nonpayable",
      "type": "function"
    }
  ],
  "transactionHash": "0x94f6848b7061b0f9b7488c8c0bcdf21689d58ccc10cbbd06bc599b7fb26487c3",
  "args": [
    "0x7B2372f4E55428C9F5026a037Daec2D1a5C44A23",
    "0x4512690B95C4582960a41495c1c1d940A3C8293a",
    "0x93727684EF13cC6D3343c106E9d0862Ba9383135",
    14400,
    "1",
    "1646330400",
    "0x44ccdccfa48621747E244eA58c350607cb75F33E"
  ],
  "solcInputHash": "6ff10e60a3cb861c14ecadba16b3088e",
  "bytecode": "0x610120604052600c60e08190526b15539055551213d49256915160a21b610100908152620000319160009190620001f1565b503480156200003f57600080fd5b506040516200222e3803806200222e8339810160408190526200006291620002b4565b600180546001600160a01b0319166001600160a01b0383169081179091556040518291907f2f658b440c35314f52658ea8a740e05b284cdc84dc9ae01e891f21b8933e7cad90600090a2506001600160a01b038716620000fd5760405162461bcd60e51b81526020600482015260116024820152705a65726f20616464726573733a204f484d60781b60448201526064015b60405180910390fd5b6001600160a01b038088166080528616620001505760405162461bcd60e51b81526020600482015260126024820152715a65726f20616464726573733a20734f484d60701b6044820152606401620000f4565b6001600160a01b0380871660a0528516620001a35760405162461bcd60e51b81526020600482015260126024820152715a65726f20616464726573733a20674f484d60701b6044820152606401620000f4565b506001600160a01b0390931660c052604080516080810182528381526020810183905290810184905260006060909101819052600292909255600355600491909155600555506200036b9050565b828054620001ff906200032e565b90600052602060002090601f0160209004810192826200022357600085556200026e565b82601f106200023e57805160ff19168380011785556200026e565b828001600101855582156200026e579182015b828111156200026e57825182559160200191906001019062000251565b506200027c92915062000280565b5090565b5b808211156200027c576000815560010162000281565b80516001600160a01b0381168114620002af57600080fd5b919050565b600080600080600080600060e0888a031215620002d057600080fd5b620002db8862000297565b9650620002eb6020890162000297565b9550620002fb6040890162000297565b9450606088015193506080880151925060a088015191506200032060c0890162000297565b905092959891949750929550565b600181811c908216806200034357607f821691505b602082108114156200036557634e487b7160e01b600052602260045260246000fd5b50919050565b60805160a05160c051611de46200044a6000396000818161018c015281816104e80152818161056001528181610b9001528181610c180152818161110d015281816111a901528181611240015281816112de015281816117a701526118430152600081816101d0015281816103ec0152818161046d015281816105e401528181610a6801528181610b3b01528181610dd701528181611004015281816110cf015281816114a8015261176001526000818161032101528181610ca101528181610d7c01528181610f8b0152818161136d01526116750152611de46000f3fe608060405234801561001057600080fd5b50600436106101825760003560e01c80639483c1d7116100d8578063bf7e214f1161008c578063deac361a11610066578063deac361a14610397578063f3d86e4a146103a0578063ff9413d8146103a857600080fd5b8063bf7e214f1461035e578063bfe1092814610371578063d866c9d81461038457600080fd5b8063a6c41fec116100bd578063a6c41fec1461031c578063af14052c14610343578063bf376c7a1461034b57600080fd5b80639483c1d714610301578063990966d51461030957600080fd5b80636746f4c21161013a578063900cf0cf11610114578063900cf0cf146102a55780639238d592146102db57806392fd2daf146102ee57600080fd5b80636746f4c21461022357806375619ab51461027d5780637a9e5e4b1461029257600080fd5b8063201386411161016b57806320138641146101f25780632986c0e51461020857806339f476931461021057600080fd5b80630cd305851461018757806315079925146101cb575b600080fd5b6101ae7f000000000000000000000000000000000000000000000000000000000000000081565b6040516001600160a01b0390911681526020015b60405180910390f35b6101ae7f000000000000000000000000000000000000000000000000000000000000000081565b6101fa6103cf565b6040519081526020016101c2565b6101fa610469565b6101fa61021e366004611b05565b6104c9565b61025b610231366004611b31565b60076020526000908152604090208054600182015460028301546003909301549192909160ff1684565b60408051948552602085019390935291830152151560608201526080016101c2565b61029061028b366004611b31565b610611565b005b6102906102a0366004611b31565b610728565b6002546003546004546005546102bb9392919084565b6040805194855260208501939093529183015260608201526080016101c2565b6102906102e9366004611b4e565b61082b565b6101fa6102fc366004611b75565b61090c565b6101fa610af3565b6101fa610317366004611bae565b610b14565b6101ae7f000000000000000000000000000000000000000000000000000000000000000081565b6101fa610dac565b6101fa610359366004611b05565b6110c0565b6001546101ae906001600160a01b031681565b6006546101ae906001600160a01b031681565b6101fa610392366004611bae565b61120d565b6101fa60085481565b6101fa6115ee565b610290336000908152600760205260409020600301805460ff19811660ff90911615179055565b600954604051637965d56d60e01b81526000916001600160a01b037f00000000000000000000000000000000000000000000000000000000000000001691637965d56d916104239160040190815260200190565b602060405180830381865afa158015610440573d6000803e3d6000fd5b505050506040513d601f19601f820116820180604052508101906104649190611c01565b905090565b60007f00000000000000000000000000000000000000000000000000000000000000006001600160a01b0316632986c0e56040518163ffffffff1660e01b8152600401602060405180830381865afa158015610440573d6000803e3d6000fd5b604051632770a7eb60e21b8152336004820152602481018290526000907f00000000000000000000000000000000000000000000000000000000000000006001600160a01b031690639dc29fac90604401600060405180830381600087803b15801561053457600080fd5b505af1158015610548573d6000803e3d6000fd5b505060405163150490ed60e31b8152600481018590527f00000000000000000000000000000000000000000000000000000000000000006001600160a01b0316925063a82487689150602401602060405180830381865afa1580156105b1573d6000803e3d6000fd5b505050506040513d601f19601f820116820180604052508101906105d59190611c01565b905061060b6001600160a01b037f00000000000000000000000000000000000000000000000000000000000000001684836116a3565b92915050565b600160009054906101000a90046001600160a01b03166001600160a01b0316630c340a246040518163ffffffff1660e01b8152600401602060405180830381865afa158015610664573d6000803e3d6000fd5b505050506040513d601f19601f820116820180604052508101906106889190611c1a565b6001600160a01b0316336001600160a01b0316146000906106c55760405162461bcd60e51b81526004016106bc9190611c37565b60405180910390fd5b506006805473ffffffffffffffffffffffffffffffffffffffff19166001600160a01b0383169081179091556040519081527f86719c518c7d99ac94b3d405d462ea876ba5cd0a978461dc9a7c9862a9485886906020015b60405180910390a150565b600160009054906101000a90046001600160a01b03166001600160a01b0316630c340a246040518163ffffffff1660e01b8152600401602060405180830381865afa15801561077b573d6000803e3d6000fd5b505050506040513d601f19601f8201168201806040525081019061079f9190611c1a565b6001600160a01b0316336001600160a01b0316146000906107d35760405162461bcd60e51b81526004016106bc9190611c37565b506001805473ffffffffffffffffffffffffffffffffffffffff19166001600160a01b0383169081179091556040517f2f658b440c35314f52658ea8a740e05b284cdc84dc9ae01e891f21b8933e7cad90600090a250565b600160009054906101000a90046001600160a01b03166001600160a01b0316630c340a246040518163ffffffff1660e01b8152600401602060405180830381865afa15801561087e573d6000803e3d6000fd5b505050506040513d601f19601f820116820180604052508101906108a29190611c1a565b6001600160a01b0316336001600160a01b0316146000906108d65760405162461bcd60e51b81526004016106bc9190611c37565b5060088190556040518181527fac17d51c35ac71d3eddc155985908430e88946d51e2f6093e93c1c0aba08f6c49060200161071d565b6001600160a01b03821660009081526007602090815260408083208151608081018352815481526001820154938101939093526002810154918301919091526003015460ff161515606082018190526109dd576001600160a01b03841633146109dd5760405162461bcd60e51b815260206004820152602660248201527f45787465726e616c20636c61696d7320666f72206163636f756e74206172652060448201527f6c6f636b6564000000000000000000000000000000000000000000000000000060648201526084016106bc565b6040810151600354108015906109f65750604081015115155b15610ae9576001600160a01b038416600090815260076020908152604082208281556001810183905560028101929092556003909101805460ff19169055810151600954610a4391611738565b6009556020810151604051637965d56d60e01b81526004810191909152610ae19085907f00000000000000000000000000000000000000000000000000000000000000006001600160a01b031690637965d56d90602401602060405180830381865afa158015610ab7573d6000803e3d6000fd5b505050506040513d601f19601f82011682018060405250810190610adb9190611c01565b8561174b565b91505061060b565b5060009392505050565b60004260028001541115610b0e576004546104649042611738565b50600090565b8260008315610b2857610b25610dac565b90505b8215610b7457610b636001600160a01b037f0000000000000000000000000000000000000000000000000000000000000000163330886118aa565b610b6d82826118e8565b9150610c8c565b604051632770a7eb60e21b8152336004820152602481018690527f00000000000000000000000000000000000000000000000000000000000000006001600160a01b031690639dc29fac90604401600060405180830381600087803b158015610bdc57600080fd5b505af1158015610bf0573d6000803e3d6000fd5b505060405163150490ed60e31b815260048101859052610c8992508391506001600160a01b037f0000000000000000000000000000000000000000000000000000000000000000169063a824876890602401602060405180830381865afa158015610c5f573d6000803e3d6000fd5b505050506040513d601f19601f82011682018060405250810190610c839190611c01565b906118e8565b91505b6040516370a0823160e01b81523060048201527f00000000000000000000000000000000000000000000000000000000000000006001600160a01b0316906370a0823190602401602060405180830381865afa158015610cf0573d6000803e3d6000fd5b505050506040513d601f19601f82011682018060405250810190610d149190611c01565b821115610d6f5760405162461bcd60e51b8152602060048201526024808201527f496e73756666696369656e74204f484d2062616c616e636520696e20636f6e746044820152631c9858dd60e21b60648201526084016106bc565b610da36001600160a01b037f00000000000000000000000000000000000000000000000000000000000000001687846116a3565b50949350505050565b600080426002800154116110bb57600554600354604051630163b36d60e21b81526001600160a01b037f0000000000000000000000000000000000000000000000000000000000000000169263058ecdb492610e1392600401918252602082015260400190565b6020604051808303816000875af1158015610e32573d6000803e3d6000fd5b505050506040513d601f19601f82011682018060405250810190610e569190611c01565b50600254600454610e66916118e8565b60045560038054906000610e7983611cf5565b90915550506006546001600160a01b031615610f7357600660009054906101000a90046001600160a01b03166001600160a01b031663e4fc6b6d6040518163ffffffff1660e01b8152600401600060405180830381600087803b158015610edf57600080fd5b505af1158015610ef3573d6000803e3d6000fd5b50505050600660009054906101000a90046001600160a01b03166001600160a01b031663e7187e8a6040518163ffffffff1660e01b81526004016020604051808303816000875af1158015610f4c573d6000803e3d6000fd5b505050506040513d601f19601f82011682018060405250810190610f709190611c01565b90505b6040516370a0823160e01b81523060048201526000907f00000000000000000000000000000000000000000000000000000000000000006001600160a01b0316906370a0823190602401602060405180830381865afa158015610fda573d6000803e3d6000fd5b505050506040513d601f19601f82011682018060405250810190610ffe9190611c01565b905060007f00000000000000000000000000000000000000000000000000000000000000006001600160a01b0316639358928b6040518163ffffffff1660e01b8152600401602060405180830381865afa158015611060573d6000803e3d6000fd5b505050506040513d601f19601f820116820180604052508101906110849190611c01565b905061109081846118e8565b82116110a05760006005556110b8565b6110b4836110ae8484611738565b90611738565b6005555b50505b919050565b60006110f76001600160a01b037f0000000000000000000000000000000000000000000000000000000000000000163330856118aa565b6040516319a948db60e21b8152600481018390527f00000000000000000000000000000000000000000000000000000000000000006001600160a01b0316906366a5236c90602401602060405180830381865afa15801561115c573d6000803e3d6000fd5b505050506040513d601f19601f820116820180604052508101906111809190611c01565b6040516340c10f1960e01b81526001600160a01b038581166004830152602482018390529192507f0000000000000000000000000000000000000000000000000000000000000000909116906340c10f1990604401600060405180830381600087803b1580156111ef57600080fd5b505af1158015611203573d6000803e3d6000fd5b5050505092915050565b6000808315801561122557506000611223610469565b115b156112b6576040516319a948db60e21b8152600481018690527f00000000000000000000000000000000000000000000000000000000000000006001600160a01b0316906366a5236c90602401602060405180830381865afa15801561128f573d6000803e3d6000fd5b505050506040513d601f19601f820116820180604052508101906112b39190611c01565b90505b60006112c0610dac565b905081156113545760405163150490ed60e31b8152600481018390527f00000000000000000000000000000000000000000000000000000000000000006001600160a01b03169063a824876890602401602060405180830381865afa15801561132d573d6000803e3d6000fd5b505050506040513d601f19601f820116820180604052508101906113519190611c01565b95505b61135e86826118e8565b95506113956001600160a01b037f0000000000000000000000000000000000000000000000000000000000000000163330896118aa565b8380156113a25750600854155b156113bb576113b287878761174b565b925050506115e6565b6001600160a01b03871660009081526007602090815260409182902082516080810184528154815260018201549281019290925260028101549282019290925260039091015460ff1615156060820181905261148f576001600160a01b038816331461148f5760405162461bcd60e51b815260206004820152602860248201527f45787465726e616c206465706f7369747320666f72206163636f756e7420617260448201527f65206c6f636b656400000000000000000000000000000000000000000000000060648201526084016106bc565b6040516306f4e59d60e21b8152600481018890526000907f00000000000000000000000000000000000000000000000000000000000000006001600160a01b031690631bd3967490602401602060405180830381865afa1580156114f7573d6000803e3d6000fd5b505050506040513d601f19601f8201168201806040525081019061151b9190611c01565b9050604051806080016040528061153f8a85600001516118e890919063ffffffff16565b815260200161155b8385602001516118e890919063ffffffff16565b8152600854600354602090920191611572916118e8565b815260608481015115156020928301526001600160a01b038c1660009081526007835260409081902084518155928401516001840155830151600283015591909101516003909101805460ff19169115159190911790556009546115d690826118e8565b600955508693506115e692505050565b949350505050565b3360008181526007602081815260408084208151608081018352815481526001820180548286019081526002840180549584019590955260038401805460ff8116151560608601529989529690955291869055908590559084905560ff199094169091555160095491929161166291611738565b600955805161169d906001600160a01b037f0000000000000000000000000000000000000000000000000000000000000000169033906116a3565b51919050565b6040516001600160a01b03831660248201526044810182905261173390849063a9059cbb60e01b906064015b60408051601f198184030181529190526020810180517bffffffffffffffffffffffffffffffffffffffffffffffffffffffff167fffffffff00000000000000000000000000000000000000000000000000000000909316929092179091526118f4565b505050565b60006117448284611d10565b9392505050565b6000811561178e576117876001600160a01b037f00000000000000000000000000000000000000000000000000000000000000001685856116a3565b5081611744565b6040516319a948db60e21b8152600481018490526000907f00000000000000000000000000000000000000000000000000000000000000006001600160a01b0316906366a5236c90602401602060405180830381865afa1580156117f6573d6000803e3d6000fd5b505050506040513d601f19601f8201168201806040525081019061181a9190611c01565b6040516340c10f1960e01b81526001600160a01b038781166004830152602482018390529192507f0000000000000000000000000000000000000000000000000000000000000000909116906340c10f1990604401600060405180830381600087803b15801561188957600080fd5b505af115801561189d573d6000803e3d6000fd5b5092979650505050505050565b6040516001600160a01b03808516602483015283166044820152606481018290526118e29085906323b872dd60e01b906084016116cf565b50505050565b60006117448284611d27565b6000611949826040518060400160405280602081526020017f5361666545524332303a206c6f772d6c6576656c2063616c6c206661696c6564815250856001600160a01b03166119d99092919063ffffffff16565b80519091501561173357808060200190518101906119679190611d3f565b6117335760405162461bcd60e51b815260206004820152602a60248201527f5361666545524332303a204552433230206f7065726174696f6e20646964206e60448201527f6f7420737563636565640000000000000000000000000000000000000000000060648201526084016106bc565b60606115e68484600085856001600160a01b0385163b611a3b5760405162461bcd60e51b815260206004820152601d60248201527f416464726573733a2063616c6c20746f206e6f6e2d636f6e747261637400000060448201526064016106bc565b600080866001600160a01b03168587604051611a579190611d88565b60006040518083038185875af1925050503d8060008114611a94576040519150601f19603f3d011682016040523d82523d6000602084013e611a99565b606091505b5091509150611aa9828286611ab4565b979650505050505050565b60608315611ac3575081611744565b825115611ad35782518084602001fd5b8160405162461bcd60e51b81526004016106bc9190611da4565b6001600160a01b0381168114611b0257600080fd5b50565b60008060408385031215611b1857600080fd5b8235611b2381611aed565b946020939093013593505050565b600060208284031215611b4357600080fd5b813561174481611aed565b600060208284031215611b6057600080fd5b5035919050565b8015158114611b0257600080fd5b60008060408385031215611b8857600080fd5b8235611b9381611aed565b91506020830135611ba381611b67565b809150509250929050565b60008060008060808587031215611bc457600080fd5b8435611bcf81611aed565b9350602085013592506040850135611be681611b67565b91506060850135611bf681611b67565b939692955090935050565b600060208284031215611c1357600080fd5b5051919050565b600060208284031215611c2c57600080fd5b815161174481611aed565b600060208083526000845481600182811c915080831680611c5957607f831692505b858310811415611c7757634e487b7160e01b85526022600452602485fd5b878601838152602001818015611c945760018114611ca557611cd0565b60ff19861682528782019650611cd0565b60008b81526020902060005b86811015611cca57815484820152908501908901611cb1565b83019750505b50949998505050505050505050565b634e487b7160e01b600052601160045260246000fd5b6000600019821415611d0957611d09611cdf565b5060010190565b600082821015611d2257611d22611cdf565b500390565b60008219821115611d3a57611d3a611cdf565b500190565b600060208284031215611d5157600080fd5b815161174481611b67565b60005b83811015611d77578181015183820152602001611d5f565b838111156118e25750506000910152565b60008251611d9a818460208701611d5c565b9190910192915050565b6020815260008251806020840152611dc3816040850160208701611d5c565b601f01601f1916919091016040019291505056fea164736f6c634300080a000a",
  "devdoc": {
    "kind": "dev",
    "methods": {
      "claim(address,bool)": {
        "params": {
          "_rebasing": "bool",
          "_to": "address"
        },
        "returns": {
          "_0": "uint"
        }
      },
      "forfeit()": {
        "returns": {
          "_0": "uint"
        }
      },
      "index()": {
        "returns": {
          "_0": "uint"
        }
      },
      "rebase()": {
        "returns": {
          "_0": "uint256"
        }
      },
      "setDistributor(address)": {
        "params": {
          "_distributor": "address"
        }
      },
      "setWarmupLength(uint256)": {
        "params": {
          "_warmupPeriod": "uint"
        }
      },
      "stake(address,uint256,bool,bool)": {
        "params": {
          "_amount": "uint",
          "_claim": "bool",
          "_rebasing": "bool",
          "_to": "address"
        },
        "returns": {
          "_0": "uint"
        }
      },
      "unstake(address,uint256,bool,bool)": {
        "params": {
          "_amount": "uint",
          "_rebasing": "bool",
          "_to": "address",
          "_trigger": "bool"
        },
        "returns": {
          "amount_": "uint"
        }
      },
      "unwrap(address,uint256)": {
        "params": {
          "_amount": "uint",
          "_to": "address"
        },
        "returns": {
          "sBalance_": "uint"
        }
      },
      "wrap(address,uint256)": {
        "params": {
          "_amount": "uint",
          "_to": "address"
        },
        "returns": {
          "gBalance_": "uint"
        }
      }
    },
    "version": 1
  },
  "userdoc": {
    "kind": "user",
    "methods": {
      "claim(address,bool)": {
        "notice": "retrieve stake from warmup"
      },
      "forfeit()": {
        "notice": "forfeit stake and retrieve OHM"
      },
      "index()": {
        "notice": "returns the sOHM index, which tracks rebase growth"
      },
      "rebase()": {
        "notice": "trigger rebase if epoch over"
      },
      "secondsToNextEpoch()": {
        "notice": "seconds until the next epoch begins"
      },
      "setDistributor(address)": {
        "notice": "sets the contract address for LP staking"
      },
      "setWarmupLength(uint256)": {
        "notice": "set warmup period for new stakers"
      },
      "stake(address,uint256,bool,bool)": {
        "notice": "stake OHM to enter warmup"
      },
      "supplyInWarmup()": {
        "notice": "total supply in warmup"
      },
      "toggleLock()": {
        "notice": "prevent new deposits or claims from ext. address (protection from malicious activity)"
      },
      "unstake(address,uint256,bool,bool)": {
        "notice": "redeem sOHM for OHMs"
      },
      "unwrap(address,uint256)": {
        "notice": "convert _amount gOHM into sBalance_ sOHM"
      },
      "wrap(address,uint256)": {
        "notice": "convert _amount sOHM into gBalance_ gOHM"
      }
    },
    "version": 1
  },
  "storageLayout": {
    "storage": [
      {
        "astId": 20675,
        "contract": "contracts/Staking.sol:OlympusStaking",
        "label": "UNAUTHORIZED",
        "offset": 0,
        "slot": "0",
        "type": "t_string_storage"
      },
      {
        "astId": 20678,
        "contract": "contracts/Staking.sol:OlympusStaking",
        "label": "authority",
        "offset": 0,
        "slot": "1",
        "type": "t_contract(IOlympusAuthority)14675"
      },
      {
        "astId": 8654,
        "contract": "contracts/Staking.sol:OlympusStaking",
        "label": "epoch",
        "offset": 0,
        "slot": "2",
        "type": "t_struct(Epoch)8633_storage"
      },
      {
        "astId": 8657,
        "contract": "contracts/Staking.sol:OlympusStaking",
        "label": "distributor",
        "offset": 0,
        "slot": "6",
        "type": "t_contract(IDistributor)14375"
      },
      {
        "astId": 8662,
        "contract": "contracts/Staking.sol:OlympusStaking",
        "label": "warmupInfo",
        "offset": 0,
        "slot": "7",
        "type": "t_mapping(t_address,t_struct(Claim)8642_storage)"
      },
      {
        "astId": 8664,
        "contract": "contracts/Staking.sol:OlympusStaking",
        "label": "warmupPeriod",
        "offset": 0,
        "slot": "8",
        "type": "t_uint256"
      },
      {
        "astId": 8666,
        "contract": "contracts/Staking.sol:OlympusStaking",
        "label": "gonsInWarmup",
        "offset": 0,
        "slot": "9",
        "type": "t_uint256"
      }
    ],
    "types": {
      "t_address": {
        "encoding": "inplace",
        "label": "address",
        "numberOfBytes": "20"
      },
      "t_bool": {
        "encoding": "inplace",
        "label": "bool",
        "numberOfBytes": "1"
      },
      "t_contract(IDistributor)14375": {
        "encoding": "inplace",
        "label": "contract IDistributor",
        "numberOfBytes": "20"
      },
      "t_contract(IOlympusAuthority)14675": {
        "encoding": "inplace",
        "label": "contract IOlympusAuthority",
        "numberOfBytes": "20"
      },
      "t_mapping(t_address,t_struct(Claim)8642_storage)": {
        "encoding": "mapping",
        "key": "t_address",
        "label": "mapping(address => struct OlympusStaking.Claim)",
        "numberOfBytes": "32",
        "value": "t_struct(Claim)8642_storage"
      },
      "t_string_storage": {
        "encoding": "bytes",
        "label": "string",
        "numberOfBytes": "32"
      },
      "t_struct(Claim)8642_storage": {
        "encoding": "inplace",
        "label": "struct OlympusStaking.Claim",
        "members": [
          {
            "astId": 8635,
            "contract": "contracts/Staking.sol:OlympusStaking",
            "label": "deposit",
            "offset": 0,
            "slot": "0",
            "type": "t_uint256"
          },
          {
            "astId": 8637,
            "contract": "contracts/Staking.sol:OlympusStaking",
            "label": "gons",
            "offset": 0,
            "slot": "1",
            "type": "t_uint256"
          },
          {
            "astId": 8639,
            "contract": "contracts/Staking.sol:OlympusStaking",
            "label": "expiry",
            "offset": 0,
            "slot": "2",
            "type": "t_uint256"
          },
          {
            "astId": 8641,
            "contract": "contracts/Staking.sol:OlympusStaking",
            "label": "lock",
            "offset": 0,
            "slot": "3",
            "type": "t_bool"
          }
        ],
        "numberOfBytes": "128"
      },
      "t_struct(Epoch)8633_storage": {
        "encoding": "inplace",
        "label": "struct OlympusStaking.Epoch",
        "members": [
          {
            "astId": 8626,
            "contract": "contracts/Staking.sol:OlympusStaking",
            "label": "length",
            "offset": 0,
            "slot": "0",
            "type": "t_uint256"
          },
          {
            "astId": 8628,
            "contract": "contracts/Staking.sol:OlympusStaking",
            "label": "number",
            "offset": 0,
            "slot": "1",
            "type": "t_uint256"
          },
          {
            "astId": 8630,
            "contract": "contracts/Staking.sol:OlympusStaking",
            "label": "end",
            "offset": 0,
            "slot": "2",
            "type": "t_uint256"
          },
          {
            "astId": 8632,
            "contract": "contracts/Staking.sol:OlympusStaking",
            "label": "distribute",
            "offset": 0,
            "slot": "3",
            "type": "t_uint256"
          }
        ],
        "numberOfBytes": "128"
      },
      "t_uint256": {
        "encoding": "inplace",
        "label": "uint256",
        "numberOfBytes": "32"
      }
    }
  }
}